{
  "_format": "hh-sol-artifact-1",
  "contractName": "Ballot",
  "sourceName": "contracts/Ballot.sol",
  "abi": [
    {
      "inputs": [
        {
          "internalType": "string",
          "name": "_title",
          "type": "string"
        }
      ],
      "stateMutability": "nonpayable",
      "type": "constructor"
    },
    {
      "anonymous": false,
      "inputs": [
        {
          "indexed": false,
          "internalType": "uint256",
          "name": "index",
          "type": "uint256"
        },
        {
          "indexed": false,
          "internalType": "string",
          "name": "name",
          "type": "string"
        }
      ],
      "name": "EventAddProposal",
      "type": "event"
    },
    {
      "inputs": [
        {
          "internalType": "uint256",
          "name": "id",
          "type": "uint256"
        },
        {
          "internalType": "string",
          "name": "name",
          "type": "string"
        },
        {
          "internalType": "string",
          "name": "avatar",
          "type": "string"
        }
      ],
      "name": "addProposal",
      "outputs": [],
      "stateMutability": "nonpayable",
      "type": "function"
    },
    {
      "inputs": [],
      "name": "chairperson",
      "outputs": [
        {
          "internalType": "address",
          "name": "",
          "type": "address"
        }
      ],
      "stateMutability": "view",
      "type": "function"
    },
    {
      "inputs": [
        {
          "internalType": "enum Ballot.PHASE",
          "name": "x",
          "type": "uint8"
        }
      ],
      "name": "changePhase",
      "outputs": [],
      "stateMutability": "nonpayable",
      "type": "function"
    },
    {
      "inputs": [],
      "name": "getAllVoters",
      "outputs": [
        {
          "internalType": "address[]",
          "name": "",
          "type": "address[]"
        }
      ],
      "stateMutability": "view",
      "type": "function"
    },
    {
      "inputs": [],
      "name": "getBallotInfo",
      "outputs": [
        {
          "internalType": "address",
          "name": "_chairperson",
          "type": "address"
        },
        {
          "internalType": "string",
          "name": "_title",
          "type": "string"
        },
        {
          "internalType": "enum Ballot.PHASE",
          "name": "_phase",
          "type": "uint8"
        },
        {
          "internalType": "uint256",
          "name": "totalProposals",
          "type": "uint256"
        },
        {
          "internalType": "uint256",
          "name": "totalVoters",
          "type": "uint256"
        },
        {
          "internalType": "uint256",
          "name": "totalRegistrations",
          "type": "uint256"
        }
      ],
      "stateMutability": "view",
      "type": "function"
    },
    {
      "inputs": [],
      "name": "getProposals",
      "outputs": [
        {
          "components": [
            {
              "internalType": "uint256",
              "name": "id",
              "type": "uint256"
            },
            {
              "internalType": "string",
              "name": "name",
              "type": "string"
            },
            {
              "internalType": "string",
              "name": "avatar",
              "type": "string"
            },
            {
              "internalType": "uint256",
              "name": "voteCount",
              "type": "uint256"
            }
          ],
          "internalType": "struct Ballot.Proposal[]",
          "name": "",
          "type": "tuple[]"
        }
      ],
      "stateMutability": "view",
      "type": "function"
    },
    {
      "inputs": [],
      "name": "getRegisteringVoters",
      "outputs": [
        {
          "components": [
            {
              "internalType": "address",
              "name": "addr",
              "type": "address"
            },
            {
              "internalType": "string",
              "name": "name",
              "type": "string"
            },
            {
              "internalType": "string",
              "name": "avatar",
              "type": "string"
            },
            {
              "internalType": "uint256",
              "name": "weight",
              "type": "uint256"
            },
            {
              "internalType": "bool",
              "name": "voted",
              "type": "bool"
            },
            {
              "internalType": "uint256",
              "name": "votedProposal",
              "type": "uint256"
            }
          ],
          "internalType": "struct Ballot.Voter[]",
          "name": "",
          "type": "tuple[]"
        }
      ],
      "stateMutability": "view",
      "type": "function"
    },
    {
      "inputs": [],
      "name": "getValidVoters",
      "outputs": [
        {
          "components": [
            {
              "internalType": "address",
              "name": "addr",
              "type": "address"
            },
            {
              "internalType": "string",
              "name": "name",
              "type": "string"
            },
            {
              "internalType": "string",
              "name": "avatar",
              "type": "string"
            },
            {
              "internalType": "uint256",
              "name": "weight",
              "type": "uint256"
            },
            {
              "internalType": "bool",
              "name": "voted",
              "type": "bool"
            },
            {
              "internalType": "uint256",
              "name": "votedProposal",
              "type": "uint256"
            }
          ],
          "internalType": "struct Ballot.Voter[]",
          "name": "",
          "type": "tuple[]"
        }
      ],
      "stateMutability": "view",
      "type": "function"
    },
    {
      "inputs": [],
      "name": "getVoterStatus",
      "outputs": [
        {
          "internalType": "uint256",
          "name": "status",
          "type": "uint256"
        }
      ],
      "stateMutability": "view",
      "type": "function"
    },
    {
      "inputs": [],
      "name": "getWinner",
      "outputs": [
        {
          "components": [
            {
              "internalType": "uint256",
              "name": "id",
              "type": "uint256"
            },
            {
              "internalType": "string",
              "name": "name",
              "type": "string"
            },
            {
              "internalType": "string",
              "name": "avatar",
              "type": "string"
            },
            {
              "internalType": "uint256",
              "name": "voteCount",
              "type": "uint256"
            }
          ],
          "internalType": "struct Ballot.Proposal",
          "name": "winner",
          "type": "tuple"
        }
      ],
      "stateMutability": "view",
      "type": "function"
    },
    {
      "inputs": [
        {
          "internalType": "address",
          "name": "voter",
          "type": "address"
        },
        {
          "internalType": "string",
          "name": "name",
          "type": "string"
        },
        {
          "internalType": "string",
          "name": "avatar",
          "type": "string"
        }
      ],
      "name": "giveRightToVote",
      "outputs": [],
      "stateMutability": "nonpayable",
      "type": "function"
    },
    {
      "inputs": [],
      "name": "phase",
      "outputs": [
        {
          "internalType": "enum Ballot.PHASE",
          "name": "",
          "type": "uint8"
        }
      ],
      "stateMutability": "view",
      "type": "function"
    },
    {
      "inputs": [
        {
          "internalType": "uint256",
          "name": "",
          "type": "uint256"
        }
      ],
      "name": "proposals",
      "outputs": [
        {
          "internalType": "uint256",
          "name": "id",
          "type": "uint256"
        },
        {
          "internalType": "string",
          "name": "name",
          "type": "string"
        },
        {
          "internalType": "string",
          "name": "avatar",
          "type": "string"
        },
        {
          "internalType": "uint256",
          "name": "voteCount",
          "type": "uint256"
        }
      ],
      "stateMutability": "view",
      "type": "function"
    },
    {
      "inputs": [
        {
          "internalType": "string",
          "name": "name",
          "type": "string"
        },
        {
          "internalType": "string",
          "name": "avatar",
          "type": "string"
        }
      ],
      "name": "registerVoter",
      "outputs": [],
      "stateMutability": "nonpayable",
      "type": "function"
    },
    {
      "inputs": [],
      "name": "title",
      "outputs": [
        {
          "internalType": "string",
          "name": "",
          "type": "string"
        }
      ],
      "stateMutability": "view",
      "type": "function"
    },
    {
      "inputs": [],
      "name": "validateChairperson",
      "outputs": [
        {
          "internalType": "bool",
          "name": "isChairperson",
          "type": "bool"
        }
      ],
      "stateMutability": "view",
      "type": "function"
    },
    {
      "inputs": [
        {
          "internalType": "uint256",
          "name": "id",
          "type": "uint256"
        }
      ],
      "name": "vote",
      "outputs": [],
      "stateMutability": "nonpayable",
      "type": "function"
    },
    {
      "inputs": [
        {
          "internalType": "address",
          "name": "",
          "type": "address"
        }
      ],
      "name": "voters",
      "outputs": [
        {
          "internalType": "address",
          "name": "addr",
          "type": "address"
        },
        {
          "internalType": "string",
          "name": "name",
          "type": "string"
        },
        {
          "internalType": "string",
          "name": "avatar",
          "type": "string"
        },
        {
          "internalType": "uint256",
          "name": "weight",
          "type": "uint256"
        },
        {
          "internalType": "bool",
          "name": "voted",
          "type": "bool"
        },
        {
          "internalType": "uint256",
          "name": "votedProposal",
          "type": "uint256"
        }
      ],
      "stateMutability": "view",
      "type": "function"
    },
    {
      "inputs": [
        {
          "internalType": "uint256",
          "name": "",
          "type": "uint256"
        }
      ],
      "name": "votersAddress",
      "outputs": [
        {
          "internalType": "address",
          "name": "",
          "type": "address"
        }
      ],
      "stateMutability": "view",
      "type": "function"
    },
    {
      "inputs": [],
      "name": "winningProposal",
      "outputs": [
        {
          "internalType": "uint256",
          "name": "winningProposal_",
          "type": "uint256"
        }
      ],
      "stateMutability": "view",
      "type": "function"
    }
  ],
  "bytecode": "0x60806040523480156200001157600080fd5b50604051620041943803806200419483398181016040528101906200003791906200028c565b336000806101000a81548173ffffffffffffffffffffffffffffffffffffffff021916908373ffffffffffffffffffffffffffffffffffffffff1602179055506001600260008060009054906101000a900473ffffffffffffffffffffffffffffffffffffffff1673ffffffffffffffffffffffffffffffffffffffff1673ffffffffffffffffffffffffffffffffffffffff168152602001908152602001600020600301819055508060059081620000f1919062000528565b50506200060f565b6000604051905090565b600080fd5b600080fd5b600080fd5b600080fd5b6000601f19601f8301169050919050565b7f4e487b7100000000000000000000000000000000000000000000000000000000600052604160045260246000fd5b620001628262000117565b810181811067ffffffffffffffff8211171562000184576200018362000128565b5b80604052505050565b600062000199620000f9565b9050620001a7828262000157565b919050565b600067ffffffffffffffff821115620001ca57620001c962000128565b5b620001d58262000117565b9050602081019050919050565b60005b8381101562000202578082015181840152602081019050620001e5565b60008484015250505050565b6000620002256200021f84620001ac565b6200018d565b90508281526020810184848401111562000244576200024362000112565b5b62000251848285620001e2565b509392505050565b600082601f8301126200027157620002706200010d565b5b8151620002838482602086016200020e565b91505092915050565b600060208284031215620002a557620002a462000103565b5b600082015167ffffffffffffffff811115620002c657620002c562000108565b5b620002d48482850162000259565b91505092915050565b600081519050919050565b7f4e487b7100000000000000000000000000000000000000000000000000000000600052602260045260246000fd5b600060028204905060018216806200033057607f821691505b602082108103620003465762000345620002e8565b5b50919050565b60008190508160005260206000209050919050565b60006020601f8301049050919050565b600082821b905092915050565b600060088302620003b07fffffffffffffffffffffffffffffffffffffffffffffffffffffffffffffffff8262000371565b620003bc868362000371565b95508019841693508086168417925050509392505050565b6000819050919050565b6000819050919050565b60006200040962000403620003fd84620003d4565b620003de565b620003d4565b9050919050565b6000819050919050565b6200042583620003e8565b6200043d620004348262000410565b8484546200037e565b825550505050565b600090565b6200045462000445565b620004618184846200041a565b505050565b5b8181101562000489576200047d6000826200044a565b60018101905062000467565b5050565b601f821115620004d857620004a2816200034c565b620004ad8462000361565b81016020851015620004bd578190505b620004d5620004cc8562000361565b83018262000466565b50505b505050565b600082821c905092915050565b6000620004fd60001984600802620004dd565b1980831691505092915050565b6000620005188383620004ea565b9150826002028217905092915050565b6200053382620002dd565b67ffffffffffffffff8111156200054f576200054e62000128565b5b6200055b825462000317565b620005688282856200048d565b600060209050601f831160018114620005a057600084156200058b578287015190505b6200059785826200050a565b86555062000607565b601f198416620005b0866200034c565b60005b82811015620005da57848901518255600182019150602085019450602081019050620005b3565b86831015620005fa5784890151620005f6601f891682620004ea565b8355505b6001600288020188555050505b505050505050565b613b75806200061f6000396000f3fe608060405234801561001057600080fd5b506004361061012c5760003560e01c806376b32537116100ad578063cf61b7db11610071578063cf61b7db14610329578063e1c2c15e14610347578063f767b1ca14610365578063f972c1c414610388578063ffe172c0146103a45761012c565b806376b32537146102805780638a4c88471461029c5780638e7ea5b2146102b8578063a3ec138d146102d6578063b1c9fe6e1461030b5761012c565b806343242daa116100f457806343242daa146101d85780634a79d50c14610208578063609ff1bd1461022657806362564c4814610244578063687f215f146102625761012c565b80630121b93f14610131578063013cf08b1461014d5780630721c297146101805780632e4176cf1461019c57806335bbe70e146101ba575b600080fd5b61014b6004803603810190610146919061266c565b6103c2565b005b6101676004803603810190610162919061266c565b610616565b6040516101779493929190612738565b60405180910390f35b61019a600480360381019061019591906127b0565b610766565b005b6101a4610896565b6040516101b1919061281e565b60405180910390f35b6101c26108ba565b6040516101cf91906128f7565b60405180910390f35b6101f260048036038101906101ed919061266c565b610948565b6040516101ff919061281e565b60405180910390f35b610210610987565b60405161021d9190612919565b60405180910390f35b61022e610a15565b60405161023b919061293b565b60405180910390f35b61024c610b0e565b6040516102599190612adb565b60405180910390f35b61026a610ca5565b6040516102779190612b18565b60405180910390f35b61029a60048036038101906102959190612c68565b610cfc565b005b6102b660048036038101906102b19190612cf3565b610f70565b005b6102c06111f3565b6040516102cd9190612dd5565b60405180910390f35b6102f060048036038101906102eb9190612e23565b6113e1565b60405161030296959493929190612e50565b60405180910390f35b61031361155a565b6040516103209190612f36565b60405180910390f35b61033161156d565b60405161033e91906130b2565b60405180910390f35b61034f61196d565b60405161035c91906130b2565b60405180910390f35b61036d611d6d565b60405161037f969594939291906130d4565b60405180910390f35b6103a2600480360381019061039d919061313c565b611f1b565b005b6103ac6123c6565b6040516103b9919061293b565b60405180910390f35b600260038111156103d6576103d5612ebf565b5b600460009054906101000a900460ff1660038111156103f8576103f7612ebf565b5b14610438576040517f08c379a000000000000000000000000000000000000000000000000000000000815260040161042f90613213565b60405180910390fd5b6000600260003373ffffffffffffffffffffffffffffffffffffffff1673ffffffffffffffffffffffffffffffffffffffff168152602001908152602001600020905060005b6003805490508110156104cb5782600382815481106104a05761049f613233565b5b90600052602060002090600402016000015403156104cb5780806104c390613291565b91505061047e565b6003805490508110610512576040517f08c379a000000000000000000000000000000000000000000000000000000000815260040161050990613325565b60405180910390fd5b6000826003015403610559576040517f08c379a000000000000000000000000000000000000000000000000000000000815260040161055090613391565b60405180910390fd5b8160040160009054906101000a900460ff16156105ab576040517f08c379a00000000000000000000000000000000000000000000000000000000081526004016105a2906133fd565b60405180910390fd5b60018260040160006101000a81548160ff0219169083151502179055508082600501819055508160030154600382815481106105ea576105e9613233565b5b9060005260206000209060040201600301600082825461060a919061341d565b92505081905550505050565b6003818154811061062657600080fd5b906000526020600020906004020160009150905080600001549080600101805461064f90613480565b80601f016020809104026020016040519081016040528092919081815260200182805461067b90613480565b80156106c85780601f1061069d576101008083540402835291602001916106c8565b820191906000526020600020905b8154815290600101906020018083116106ab57829003601f168201915b5050505050908060020180546106dd90613480565b80601f016020809104026020016040519081016040528092919081815260200182805461070990613480565b80156107565780601f1061072b57610100808354040283529160200191610756565b820191906000526020600020905b81548152906001019060200180831161073957829003601f168201915b5050505050908060030154905084565b60008054906101000a900473ffffffffffffffffffffffffffffffffffffffff1673ffffffffffffffffffffffffffffffffffffffff163373ffffffffffffffffffffffffffffffffffffffff16146107f4576040517f08c379a00000000000000000000000000000000000000000000000000000000081526004016107eb906134fd565b60405180910390fd5b600460009054906101000a900460ff16600381111561081657610815612ebf565b5b81600381111561082957610828612ebf565b5b11610869576040517f08c379a000000000000000000000000000000000000000000000000000000000815260040161086090613569565b60405180910390fd5b80600460006101000a81548160ff0219169083600381111561088e5761088d612ebf565b5b021790555050565b60008054906101000a900473ffffffffffffffffffffffffffffffffffffffff1681565b6060600180548060200260200160405190810160405280929190818152602001828054801561093e57602002820191906000526020600020905b8160009054906101000a900473ffffffffffffffffffffffffffffffffffffffff1673ffffffffffffffffffffffffffffffffffffffff16815260200190600101908083116108f4575b5050505050905090565b6001818154811061095857600080fd5b906000526020600020016000915054906101000a900473ffffffffffffffffffffffffffffffffffffffff1681565b6005805461099490613480565b80601f01602080910402602001604051908101604052809291908181526020018280546109c090613480565b8015610a0d5780601f106109e257610100808354040283529160200191610a0d565b820191906000526020600020905b8154815290600101906020018083116109f057829003601f168201915b505050505081565b6000600380811115610a2a57610a29612ebf565b5b600460009054906101000a900460ff166003811115610a4c57610a4b612ebf565b5b14610a8c576040517f08c379a0000000000000000000000000000000000000000000000000000000008152600401610a83906135d5565b60405180910390fd5b6000805b600380549050811015610b09578160038281548110610ab257610ab1613233565b5b9060005260206000209060040201600301541115610af65760038181548110610ade57610add613233565b5b90600052602060002090600402016003015491508092505b8080610b0190613291565b915050610a90565b505090565b60606003805480602002602001604051908101604052809291908181526020016000905b82821015610c9c578382906000526020600020906004020160405180608001604052908160008201548152602001600182018054610b6f90613480565b80601f0160208091040260200160405190810160405280929190818152602001828054610b9b90613480565b8015610be85780601f10610bbd57610100808354040283529160200191610be8565b820191906000526020600020905b815481529060010190602001808311610bcb57829003601f168201915b50505050508152602001600282018054610c0190613480565b80601f0160208091040260200160405190810160405280929190818152602001828054610c2d90613480565b8015610c7a5780601f10610c4f57610100808354040283529160200191610c7a565b820191906000526020600020905b815481529060010190602001808311610c5d57829003601f168201915b5050505050815260200160038201548152505081526020019060010190610b32565b50505050905090565b60008060009054906101000a900473ffffffffffffffffffffffffffffffffffffffff1673ffffffffffffffffffffffffffffffffffffffff163373ffffffffffffffffffffffffffffffffffffffff1614905090565b60008054906101000a900473ffffffffffffffffffffffffffffffffffffffff1673ffffffffffffffffffffffffffffffffffffffff163373ffffffffffffffffffffffffffffffffffffffff1614610d8a576040517f08c379a0000000000000000000000000000000000000000000000000000000008152600401610d81906134fd565b60405180910390fd5b60006003811115610d9e57610d9d612ebf565b5b600460009054906101000a900460ff166003811115610dc057610dbf612ebf565b5b14610e00576040517f08c379a0000000000000000000000000000000000000000000000000000000008152600401610df790613667565b60405180910390fd5b60005b600380549050811015610e50578360038281548110610e2557610e24613233565b5b9060005260206000209060040201600001540315610e50578080610e4890613291565b915050610e03565b6003805490508114610e97576040517f08c379a0000000000000000000000000000000000000000000000000000000008152600401610e8e906136d3565b60405180910390fd5b600060038054905090506003604051806080016040528087815260200186815260200185815260200160008152509080600181540180825580915050600190039060005260206000209060040201600090919091909150600082015181600001556020820151816001019081610f0d919061389f565b506040820151816002019081610f23919061389f565b506060820151816003015550507f5ab5e97c393a1e0fba71d5d694ad0ddda499d7bf13be3eeebbaa0ebf5d6547c38185604051610f61929190613971565b60405180910390a15050505050565b60016003811115610f8457610f83612ebf565b5b600460009054906101000a900460ff166003811115610fa657610fa5612ebf565b5b14610fe6576040517f08c379a0000000000000000000000000000000000000000000000000000000008152600401610fdd906139ed565b60405180910390fd5b6000600260003373ffffffffffffffffffffffffffffffffffffffff1673ffffffffffffffffffffffffffffffffffffffff168152602001908152602001600020600301541461106b576040517f08c379a000000000000000000000000000000000000000000000000000000000815260040161106290613a7f565b60405180910390fd5b6001339080600181540180825580915050600190039060005260206000200160009091909190916101000a81548173ffffffffffffffffffffffffffffffffffffffff021916908373ffffffffffffffffffffffffffffffffffffffff16021790555081600260003373ffffffffffffffffffffffffffffffffffffffff1673ffffffffffffffffffffffffffffffffffffffff168152602001908152602001600020600101908161111d919061389f565b5080600260003373ffffffffffffffffffffffffffffffffffffffff1673ffffffffffffffffffffffffffffffffffffffff168152602001908152602001600020600201908161116d919061389f565b5033600260003373ffffffffffffffffffffffffffffffffffffffff1673ffffffffffffffffffffffffffffffffffffffff16815260200190815260200160002060000160006101000a81548173ffffffffffffffffffffffffffffffffffffffff021916908373ffffffffffffffffffffffffffffffffffffffff1602179055505050565b6111fb6125ac565b60038081111561120e5761120d612ebf565b5b600460009054906101000a900460ff1660038111156112305761122f612ebf565b5b14611270576040517f08c379a0000000000000000000000000000000000000000000000000000000008152600401611267906135d5565b60405180910390fd5b600361127a610a15565b8154811061128b5761128a613233565b5b9060005260206000209060040201604051806080016040529081600082015481526020016001820180546112be90613480565b80601f01602080910402602001604051908101604052809291908181526020018280546112ea90613480565b80156113375780601f1061130c57610100808354040283529160200191611337565b820191906000526020600020905b81548152906001019060200180831161131a57829003601f168201915b5050505050815260200160028201805461135090613480565b80601f016020809104026020016040519081016040528092919081815260200182805461137c90613480565b80156113c95780601f1061139e576101008083540402835291602001916113c9565b820191906000526020600020905b8154815290600101906020018083116113ac57829003601f168201915b50505050508152602001600382015481525050905090565b60026020528060005260406000206000915090508060000160009054906101000a900473ffffffffffffffffffffffffffffffffffffffff169080600101805461142a90613480565b80601f016020809104026020016040519081016040528092919081815260200182805461145690613480565b80156114a35780601f10611478576101008083540402835291602001916114a3565b820191906000526020600020905b81548152906001019060200180831161148657829003601f168201915b5050505050908060020180546114b890613480565b80601f01602080910402602001604051908101604052809291908181526020018280546114e490613480565b80156115315780601f1061150657610100808354040283529160200191611531565b820191906000526020600020905b81548152906001019060200180831161151457829003601f168201915b5050505050908060030154908060040160009054906101000a900460ff16908060050154905086565b600460009054906101000a900460ff1681565b606060008054906101000a900473ffffffffffffffffffffffffffffffffffffffff1673ffffffffffffffffffffffffffffffffffffffff163373ffffffffffffffffffffffffffffffffffffffff16146115fd576040517f08c379a00000000000000000000000000000000000000000000000000000000081526004016115f4906134fd565b60405180910390fd5b600060018054905067ffffffffffffffff81111561161e5761161d612b3d565b5b60405190808252806020026020018201604052801561165757816020015b6116446125d4565b81526020019060019003908161163c5790505b5090506000805b600180549050811015611964576000600260006001848154811061168557611684613233565b5b9060005260206000200160009054906101000a900473ffffffffffffffffffffffffffffffffffffffff1673ffffffffffffffffffffffffffffffffffffffff1673ffffffffffffffffffffffffffffffffffffffff168152602001908152602001600020600301540361195157600260006001838154811061170b5761170a613233565b5b9060005260206000200160009054906101000a900473ffffffffffffffffffffffffffffffffffffffff1673ffffffffffffffffffffffffffffffffffffffff1673ffffffffffffffffffffffffffffffffffffffff1681526020019081526020016000206040518060c00160405290816000820160009054906101000a900473ffffffffffffffffffffffffffffffffffffffff1673ffffffffffffffffffffffffffffffffffffffff1673ffffffffffffffffffffffffffffffffffffffff1681526020016001820180546117e190613480565b80601f016020809104026020016040519081016040528092919081815260200182805461180d90613480565b801561185a5780601f1061182f5761010080835404028352916020019161185a565b820191906000526020600020905b81548152906001019060200180831161183d57829003601f168201915b5050505050815260200160028201805461187390613480565b80601f016020809104026020016040519081016040528092919081815260200182805461189f90613480565b80156118ec5780601f106118c1576101008083540402835291602001916118ec565b820191906000526020600020905b8154815290600101906020018083116118cf57829003601f168201915b50505050508152602001600382015481526020016004820160009054906101000a900460ff1615151515815260200160058201548152505083838151811061193757611936613233565b5b6020026020010181905250818061194d90613291565b9250505b808061195c90613291565b91505061165e565b50819250505090565b606060008054906101000a900473ffffffffffffffffffffffffffffffffffffffff1673ffffffffffffffffffffffffffffffffffffffff163373ffffffffffffffffffffffffffffffffffffffff16146119fd576040517f08c379a00000000000000000000000000000000000000000000000000000000081526004016119f4906134fd565b60405180910390fd5b600060018054905067ffffffffffffffff811115611a1e57611a1d612b3d565b5b604051908082528060200260200182016040528015611a5757816020015b611a446125d4565b815260200190600190039081611a3c5790505b5090506000805b600180549050811015611d645760016002600060018481548110611a8557611a84613233565b5b9060005260206000200160009054906101000a900473ffffffffffffffffffffffffffffffffffffffff1673ffffffffffffffffffffffffffffffffffffffff1673ffffffffffffffffffffffffffffffffffffffff1681526020019081526020016000206003015403611d51576002600060018381548110611b0b57611b0a613233565b5b9060005260206000200160009054906101000a900473ffffffffffffffffffffffffffffffffffffffff1673ffffffffffffffffffffffffffffffffffffffff1673ffffffffffffffffffffffffffffffffffffffff1681526020019081526020016000206040518060c00160405290816000820160009054906101000a900473ffffffffffffffffffffffffffffffffffffffff1673ffffffffffffffffffffffffffffffffffffffff1673ffffffffffffffffffffffffffffffffffffffff168152602001600182018054611be190613480565b80601f0160208091040260200160405190810160405280929190818152602001828054611c0d90613480565b8015611c5a5780601f10611c2f57610100808354040283529160200191611c5a565b820191906000526020600020905b815481529060010190602001808311611c3d57829003601f168201915b50505050508152602001600282018054611c7390613480565b80601f0160208091040260200160405190810160405280929190818152602001828054611c9f90613480565b8015611cec5780601f10611cc157610100808354040283529160200191611cec565b820191906000526020600020905b815481529060010190602001808311611ccf57829003601f168201915b50505050508152602001600382015481526020016004820160009054906101000a900460ff16151515158152602001600582015481525050838381518110611d3757611d36613233565b5b60200260200101819052508180611d4d90613291565b9250505b8080611d5c90613291565b915050611a5e565b50819250505090565b6000606060008060008060008054906101000a900473ffffffffffffffffffffffffffffffffffffffff16955060058054611da790613480565b80601f0160208091040260200160405190810160405280929190818152602001828054611dd390613480565b8015611e205780601f10611df557610100808354040283529160200191611e20565b820191906000526020600020905b815481529060010190602001808311611e0357829003601f168201915b50505050509450600460009054906101000a900460ff16935060038054905092506000905060005b600180549050811015611eff5760006002600060018481548110611e6f57611e6e613233565b5b9060005260206000200160009054906101000a900473ffffffffffffffffffffffffffffffffffffffff1673ffffffffffffffffffffffffffffffffffffffff1673ffffffffffffffffffffffffffffffffffffffff1681526020019081526020016000206003015403611eec578180611ee890613291565b9250505b8080611ef790613291565b915050611e48565b5080600180549050611f119190613a9f565b9150909192939495565b60008054906101000a900473ffffffffffffffffffffffffffffffffffffffff1673ffffffffffffffffffffffffffffffffffffffff163373ffffffffffffffffffffffffffffffffffffffff1614611fa9576040517f08c379a0000000000000000000000000000000000000000000000000000000008152600401611fa0906134fd565b60405180910390fd5b60026003811115611fbd57611fbc612ebf565b5b600460009054906101000a900460ff166003811115611fdf57611fde612ebf565b5b1061201f576040517f08c379a000000000000000000000000000000000000000000000000000000000815260040161201690613b1f565b60405180910390fd5b6000600260008573ffffffffffffffffffffffffffffffffffffffff1673ffffffffffffffffffffffffffffffffffffffff16815260200190815260200160002060030154146120a4576040517f08c379a000000000000000000000000000000000000000000000000000000000815260040161209b90613a7f565b60405180910390fd5b6000600260008573ffffffffffffffffffffffffffffffffffffffff1673ffffffffffffffffffffffffffffffffffffffff16815260200190815260200160002060010180546120f390613480565b90500361214b5781600260008573ffffffffffffffffffffffffffffffffffffffff1673ffffffffffffffffffffffffffffffffffffffff1681526020019081526020016000206001019081612149919061389f565b505b6000600260008573ffffffffffffffffffffffffffffffffffffffff1673ffffffffffffffffffffffffffffffffffffffff168152602001908152602001600020600201805461219a90613480565b9050036121f25780600260008573ffffffffffffffffffffffffffffffffffffffff1673ffffffffffffffffffffffffffffffffffffffff16815260200190815260200160002060020190816121f0919061389f565b505b6001600260008573ffffffffffffffffffffffffffffffffffffffff1673ffffffffffffffffffffffffffffffffffffffff1681526020019081526020016000206003018190555082600260008573ffffffffffffffffffffffffffffffffffffffff1673ffffffffffffffffffffffffffffffffffffffff16815260200190815260200160002060000160006101000a81548173ffffffffffffffffffffffffffffffffffffffff021916908373ffffffffffffffffffffffffffffffffffffffff16021790555060005b600180549050811015612350578373ffffffffffffffffffffffffffffffffffffffff16600182815481106122f6576122f5613233565b5b9060005260206000200160009054906101000a900473ffffffffffffffffffffffffffffffffffffffff1673ffffffffffffffffffffffffffffffffffffffff16031561235057808061234890613291565b9150506122be565b60018054905081036123c0576001849080600181540180825580915050600190039060005260206000200160009091909190916101000a81548173ffffffffffffffffffffffffffffffffffffffff021916908373ffffffffffffffffffffffffffffffffffffffff1602179055505b50505050565b600080600090505b600180549050811015612460573373ffffffffffffffffffffffffffffffffffffffff166001828154811061240657612405613233565b5b9060005260206000200160009054906101000a900473ffffffffffffffffffffffffffffffffffffffff1673ffffffffffffffffffffffffffffffffffffffff16031561246057808061245890613291565b9150506123ce565b600180549050810361247557600091506125a8565b6000600260006001848154811061248f5761248e613233565b5b9060005260206000200160009054906101000a900473ffffffffffffffffffffffffffffffffffffffff1673ffffffffffffffffffffffffffffffffffffffff1673ffffffffffffffffffffffffffffffffffffffff168152602001908152602001600020600301540361250657600191506125a7565b600260006001838154811061251e5761251d613233565b5b9060005260206000200160009054906101000a900473ffffffffffffffffffffffffffffffffffffffff1673ffffffffffffffffffffffffffffffffffffffff1673ffffffffffffffffffffffffffffffffffffffff16815260200190815260200160002060040160009054906101000a900460ff166125a157600291506125a6565b600391505b5b5b5090565b6040518060800160405280600081526020016060815260200160608152602001600081525090565b6040518060c00160405280600073ffffffffffffffffffffffffffffffffffffffff168152602001606081526020016060815260200160008152602001600015158152602001600081525090565b6000604051905090565b600080fd5b600080fd5b6000819050919050565b61264981612636565b811461265457600080fd5b50565b60008135905061266681612640565b92915050565b6000602082840312156126825761268161262c565b5b600061269084828501612657565b91505092915050565b6126a281612636565b82525050565b600081519050919050565b600082825260208201905092915050565b60005b838110156126e25780820151818401526020810190506126c7565b60008484015250505050565b6000601f19601f8301169050919050565b600061270a826126a8565b61271481856126b3565b93506127248185602086016126c4565b61272d816126ee565b840191505092915050565b600060808201905061274d6000830187612699565b818103602083015261275f81866126ff565b9050818103604083015261277381856126ff565b90506127826060830184612699565b95945050505050565b6004811061279857600080fd5b50565b6000813590506127aa8161278b565b92915050565b6000602082840312156127c6576127c561262c565b5b60006127d48482850161279b565b91505092915050565b600073ffffffffffffffffffffffffffffffffffffffff82169050919050565b6000612808826127dd565b9050919050565b612818816127fd565b82525050565b6000602082019050612833600083018461280f565b92915050565b600081519050919050565b600082825260208201905092915050565b6000819050602082019050919050565b61286e816127fd565b82525050565b60006128808383612865565b60208301905092915050565b6000602082019050919050565b60006128a482612839565b6128ae8185612844565b93506128b983612855565b8060005b838110156128ea5781516128d18882612874565b97506128dc8361288c565b9250506001810190506128bd565b5085935050505092915050565b600060208201905081810360008301526129118184612899565b905092915050565b6000602082019050818103600083015261293381846126ff565b905092915050565b60006020820190506129506000830184612699565b92915050565b600081519050919050565b600082825260208201905092915050565b6000819050602082019050919050565b61298b81612636565b82525050565b600082825260208201905092915050565b60006129ad826126a8565b6129b78185612991565b93506129c78185602086016126c4565b6129d0816126ee565b840191505092915050565b60006080830160008301516129f36000860182612982565b5060208301518482036020860152612a0b82826129a2565b91505060408301518482036040860152612a2582826129a2565b9150506060830151612a3a6060860182612982565b508091505092915050565b6000612a5183836129db565b905092915050565b6000602082019050919050565b6000612a7182612956565b612a7b8185612961565b935083602082028501612a8d85612972565b8060005b85811015612ac95784840389528151612aaa8582612a45565b9450612ab583612a59565b925060208a01995050600181019050612a91565b50829750879550505050505092915050565b60006020820190508181036000830152612af58184612a66565b905092915050565b60008115159050919050565b612b1281612afd565b82525050565b6000602082019050612b2d6000830184612b09565b92915050565b600080fd5b600080fd5b7f4e487b7100000000000000000000000000000000000000000000000000000000600052604160045260246000fd5b612b75826126ee565b810181811067ffffffffffffffff82111715612b9457612b93612b3d565b5b80604052505050565b6000612ba7612622565b9050612bb38282612b6c565b919050565b600067ffffffffffffffff821115612bd357612bd2612b3d565b5b612bdc826126ee565b9050602081019050919050565b82818337600083830152505050565b6000612c0b612c0684612bb8565b612b9d565b905082815260208101848484011115612c2757612c26612b38565b5b612c32848285612be9565b509392505050565b600082601f830112612c4f57612c4e612b33565b5b8135612c5f848260208601612bf8565b91505092915050565b600080600060608486031215612c8157612c8061262c565b5b6000612c8f86828701612657565b935050602084013567ffffffffffffffff811115612cb057612caf612631565b5b612cbc86828701612c3a565b925050604084013567ffffffffffffffff811115612cdd57612cdc612631565b5b612ce986828701612c3a565b9150509250925092565b60008060408385031215612d0a57612d0961262c565b5b600083013567ffffffffffffffff811115612d2857612d27612631565b5b612d3485828601612c3a565b925050602083013567ffffffffffffffff811115612d5557612d54612631565b5b612d6185828601612c3a565b9150509250929050565b6000608083016000830151612d836000860182612982565b5060208301518482036020860152612d9b82826129a2565b91505060408301518482036040860152612db582826129a2565b9150506060830151612dca6060860182612982565b508091505092915050565b60006020820190508181036000830152612def8184612d6b565b905092915050565b612e00816127fd565b8114612e0b57600080fd5b50565b600081359050612e1d81612df7565b92915050565b600060208284031215612e3957612e3861262c565b5b6000612e4784828501612e0e565b91505092915050565b600060c082019050612e65600083018961280f565b8181036020830152612e7781886126ff565b90508181036040830152612e8b81876126ff565b9050612e9a6060830186612699565b612ea76080830185612b09565b612eb460a0830184612699565b979650505050505050565b7f4e487b7100000000000000000000000000000000000000000000000000000000600052602160045260246000fd5b60048110612eff57612efe612ebf565b5b50565b6000819050612f1082612eee565b919050565b6000612f2082612f02565b9050919050565b612f3081612f15565b82525050565b6000602082019050612f4b6000830184612f27565b92915050565b600081519050919050565b600082825260208201905092915050565b6000819050602082019050919050565b612f8681612afd565b82525050565b600060c083016000830151612fa46000860182612865565b5060208301518482036020860152612fbc82826129a2565b91505060408301518482036040860152612fd682826129a2565b9150506060830151612feb6060860182612982565b506080830151612ffe6080860182612f7d565b5060a083015161301160a0860182612982565b508091505092915050565b60006130288383612f8c565b905092915050565b6000602082019050919050565b600061304882612f51565b6130528185612f5c565b93508360208202850161306485612f6d565b8060005b858110156130a05784840389528151613081858261301c565b945061308c83613030565b925060208a01995050600181019050613068565b50829750879550505050505092915050565b600060208201905081810360008301526130cc818461303d565b905092915050565b600060c0820190506130e9600083018961280f565b81810360208301526130fb81886126ff565b905061310a6040830187612f27565b6131176060830186612699565b6131246080830185612699565b61313160a0830184612699565b979650505050505050565b6000806000606084860312156131555761315461262c565b5b600061316386828701612e0e565b935050602084013567ffffffffffffffff81111561318457613183612631565b5b61319086828701612c3a565b925050604084013567ffffffffffffffff8111156131b1576131b0612631565b5b6131bd86828701612c3a565b9150509250925092565b7f43616e2774206769766520766f74652061742074686973207068617365000000600082015250565b60006131fd601d836126b3565b9150613208826131c7565b602082019050919050565b6000602082019050818103600083015261322c816131f0565b9050919050565b7f4e487b7100000000000000000000000000000000000000000000000000000000600052603260045260246000fd5b7f4e487b7100000000000000000000000000000000000000000000000000000000600052601160045260246000fd5b600061329c82612636565b91507fffffffffffffffffffffffffffffffffffffffffffffffffffffffffffffffff82036132ce576132cd613262565b5b600182019050919050565b7f50726f706f73616c206e6f742065786973740000000000000000000000000000600082015250565b600061330f6012836126b3565b915061331a826132d9565b602082019050919050565b6000602082019050818103600083015261333e81613302565b9050919050565b7f486173206e6f20726967687420746f20766f7465000000000000000000000000600082015250565b600061337b6014836126b3565b915061338682613345565b602082019050919050565b600060208201905081810360008301526133aa8161336e565b9050919050565b7f416c726561647920766f7465642e000000000000000000000000000000000000600082015250565b60006133e7600e836126b3565b91506133f2826133b1565b602082019050919050565b60006020820190508181036000830152613416816133da565b9050919050565b600061342882612636565b915061343383612636565b925082820190508082111561344b5761344a613262565b5b92915050565b7f4e487b7100000000000000000000000000000000000000000000000000000000600052602260045260246000fd5b6000600282049050600182168061349857607f821691505b6020821081036134ab576134aa613451565b5b50919050565b7f4e6f74206368616972706572736f6e2e00000000000000000000000000000000600082015250565b60006134e76010836126b3565b91506134f2826134b1565b602082019050919050565b60006020820190508181036000830152613516816134da565b9050919050565b7f43616e2774206d6f766520746f2070726576696f757320706861736500000000600082015250565b6000613553601c836126b3565b915061355e8261351d565b602082019050919050565b6000602082019050818103600083015261358281613546565b9050919050565b7f42616c6c6f7420686173206e6f742066696e6973686564207965740000000000600082015250565b60006135bf601b836126b3565b91506135ca82613589565b602082019050919050565b600060208201905081810360008301526135ee816135b2565b9050919050565b7f43616e2774206164642070726f706f73616c732061742074686973207068617360008201527f6500000000000000000000000000000000000000000000000000000000000000602082015250565b60006136516021836126b3565b915061365c826135f5565b604082019050919050565b6000602082019050818103600083015261368081613644565b9050919050565b7f50726f706f73616c206578697374656400000000000000000000000000000000600082015250565b60006136bd6010836126b3565b91506136c882613687565b602082019050919050565b600060208201905081810360008301526136ec816136b0565b9050919050565b60008190508160005260206000209050919050565b60006020601f8301049050919050565b600082821b905092915050565b6000600883026137557fffffffffffffffffffffffffffffffffffffffffffffffffffffffffffffffff82613718565b61375f8683613718565b95508019841693508086168417925050509392505050565b6000819050919050565b600061379c61379761379284612636565b613777565b612636565b9050919050565b6000819050919050565b6137b683613781565b6137ca6137c2826137a3565b848454613725565b825550505050565b600090565b6137df6137d2565b6137ea8184846137ad565b505050565b5b8181101561380e576138036000826137d7565b6001810190506137f0565b5050565b601f82111561385357613824816136f3565b61382d84613708565b8101602085101561383c578190505b61385061384885613708565b8301826137ef565b50505b505050565b600082821c905092915050565b600061387660001984600802613858565b1980831691505092915050565b600061388f8383613865565b9150826002028217905092915050565b6138a8826126a8565b67ffffffffffffffff8111156138c1576138c0612b3d565b5b6138cb8254613480565b6138d6828285613812565b600060209050601f83116001811461390957600084156138f7578287015190505b6139018582613883565b865550613969565b601f198416613917866136f3565b60005b8281101561393f5784890151825560018201915060208501945060208101905061391a565b8683101561395c5784890151613958601f891682613865565b8355505b6001600288020188555050505b505050505050565b60006040820190506139866000830185612699565b818103602083015261399881846126ff565b90509392505050565b7f43616e2774207265676973746572206174207468697320706861736500000000600082015250565b60006139d7601c836126b3565b91506139e2826139a1565b602082019050919050565b60006020820190508181036000830152613a06816139ca565b9050919050565b7f54686520766f74657220616c72656164792068617320726967687420746f207660008201527f6f74652e00000000000000000000000000000000000000000000000000000000602082015250565b6000613a696024836126b3565b9150613a7482613a0d565b604082019050919050565b60006020820190508181036000830152613a9881613a5c565b9050919050565b6000613aaa82612636565b9150613ab583612636565b9250828203905081811115613acd57613acc613262565b5b92915050565b7f43616e27742061646420766f7465727320617420746869732070686173650000600082015250565b6000613b09601e836126b3565b9150613b1482613ad3565b602082019050919050565b60006020820190508181036000830152613b3881613afc565b905091905056fea2646970667358221220cadd2dcf8ebf4e0d8ed29c1cbb692fe7881d92b29f970795604bebe6605d89b264736f6c63430008110033",
  "linkReferences": {},
  "deployedLinkReferences": {}
}