{
  "_format": "hh-sol-artifact-1",
  "contractName": "Ballot",
  "sourceName": "contracts/Ballot.sol",
  "abi": [
    {
      "inputs": [
        {
          "internalType": "string",
          "name": "_title",
          "type": "string"
        }
      ],
      "stateMutability": "nonpayable",
      "type": "constructor"
    },
    {
      "anonymous": false,
      "inputs": [
        {
          "indexed": false,
          "internalType": "uint256",
          "name": "index",
          "type": "uint256"
        },
        {
          "indexed": false,
          "internalType": "string",
          "name": "name",
          "type": "string"
        }
      ],
      "name": "EventAddProposal",
      "type": "event"
    },
    {
      "inputs": [
        {
          "internalType": "uint256",
          "name": "id",
          "type": "uint256"
        },
        {
          "internalType": "string",
          "name": "name",
          "type": "string"
        },
        {
          "internalType": "string",
          "name": "avatar",
          "type": "string"
        }
      ],
      "name": "addProposal",
      "outputs": [],
      "stateMutability": "nonpayable",
      "type": "function"
    },
    {
      "inputs": [],
      "name": "chairperson",
      "outputs": [
        {
          "internalType": "address",
          "name": "",
          "type": "address"
        }
      ],
      "stateMutability": "view",
      "type": "function"
    },
    {
      "inputs": [
        {
          "internalType": "enum Ballot.PHASE",
          "name": "x",
          "type": "uint8"
        }
      ],
      "name": "changePhase",
      "outputs": [],
      "stateMutability": "nonpayable",
      "type": "function"
    },
    {
      "inputs": [
        {
          "internalType": "address",
          "name": "to",
          "type": "address"
        }
      ],
      "name": "delegate",
      "outputs": [],
      "stateMutability": "nonpayable",
      "type": "function"
    },
    {
      "inputs": [],
      "name": "getAllVoters",
      "outputs": [
        {
          "internalType": "address[]",
          "name": "",
          "type": "address[]"
        }
      ],
      "stateMutability": "view",
      "type": "function"
    },
    {
      "inputs": [],
      "name": "getBallotInfo",
      "outputs": [
        {
          "internalType": "address",
          "name": "_chairperson",
          "type": "address"
        },
        {
          "internalType": "string",
          "name": "_title",
          "type": "string"
        },
        {
          "internalType": "enum Ballot.PHASE",
          "name": "_phase",
          "type": "uint8"
        },
        {
          "internalType": "uint256",
          "name": "totalProposals",
          "type": "uint256"
        },
        {
          "internalType": "uint256",
          "name": "totalVoters",
          "type": "uint256"
        },
        {
          "internalType": "uint256",
          "name": "totalRegistrations",
          "type": "uint256"
        }
      ],
      "stateMutability": "view",
      "type": "function"
    },
    {
      "inputs": [],
      "name": "getProposals",
      "outputs": [
        {
          "components": [
            {
              "internalType": "uint256",
              "name": "id",
              "type": "uint256"
            },
            {
              "internalType": "string",
              "name": "name",
              "type": "string"
            },
            {
              "internalType": "string",
              "name": "avatar",
              "type": "string"
            },
            {
              "internalType": "uint256",
              "name": "voteCount",
              "type": "uint256"
            }
          ],
          "internalType": "struct Ballot.Proposal[]",
          "name": "",
          "type": "tuple[]"
        }
      ],
      "stateMutability": "view",
      "type": "function"
    },
    {
      "inputs": [],
      "name": "getRegisteringVoters",
      "outputs": [
        {
          "components": [
            {
              "internalType": "address",
              "name": "addr",
              "type": "address"
            },
            {
              "internalType": "string",
              "name": "name",
              "type": "string"
            },
            {
              "internalType": "string",
              "name": "avatar",
              "type": "string"
            },
            {
              "internalType": "uint256",
              "name": "weight",
              "type": "uint256"
            },
            {
              "internalType": "bool",
              "name": "voted",
              "type": "bool"
            },
            {
              "internalType": "address",
              "name": "delegate",
              "type": "address"
            },
            {
              "internalType": "uint256",
              "name": "votedProposal",
              "type": "uint256"
            }
          ],
          "internalType": "struct Ballot.Voter[]",
          "name": "",
          "type": "tuple[]"
        }
      ],
      "stateMutability": "view",
      "type": "function"
    },
    {
      "inputs": [],
      "name": "getValidVoters",
      "outputs": [
        {
          "components": [
            {
              "internalType": "address",
              "name": "addr",
              "type": "address"
            },
            {
              "internalType": "string",
              "name": "name",
              "type": "string"
            },
            {
              "internalType": "string",
              "name": "avatar",
              "type": "string"
            },
            {
              "internalType": "uint256",
              "name": "weight",
              "type": "uint256"
            },
            {
              "internalType": "bool",
              "name": "voted",
              "type": "bool"
            },
            {
              "internalType": "address",
              "name": "delegate",
              "type": "address"
            },
            {
              "internalType": "uint256",
              "name": "votedProposal",
              "type": "uint256"
            }
          ],
          "internalType": "struct Ballot.Voter[]",
          "name": "",
          "type": "tuple[]"
        }
      ],
      "stateMutability": "view",
      "type": "function"
    },
    {
      "inputs": [],
      "name": "getVoterStatus",
      "outputs": [
        {
          "internalType": "uint256",
          "name": "status",
          "type": "uint256"
        }
      ],
      "stateMutability": "view",
      "type": "function"
    },
    {
      "inputs": [],
      "name": "getWinner",
      "outputs": [
        {
          "components": [
            {
              "internalType": "uint256",
              "name": "id",
              "type": "uint256"
            },
            {
              "internalType": "string",
              "name": "name",
              "type": "string"
            },
            {
              "internalType": "string",
              "name": "avatar",
              "type": "string"
            },
            {
              "internalType": "uint256",
              "name": "voteCount",
              "type": "uint256"
            }
          ],
          "internalType": "struct Ballot.Proposal",
          "name": "winner",
          "type": "tuple"
        }
      ],
      "stateMutability": "view",
      "type": "function"
    },
    {
      "inputs": [
        {
          "internalType": "address",
          "name": "voter",
          "type": "address"
        },
        {
          "internalType": "string",
          "name": "name",
          "type": "string"
        },
        {
          "internalType": "string",
          "name": "avatar",
          "type": "string"
        }
      ],
      "name": "giveRightToVote",
      "outputs": [],
      "stateMutability": "nonpayable",
      "type": "function"
    },
    {
      "inputs": [],
      "name": "phase",
      "outputs": [
        {
          "internalType": "enum Ballot.PHASE",
          "name": "",
          "type": "uint8"
        }
      ],
      "stateMutability": "view",
      "type": "function"
    },
    {
      "inputs": [
        {
          "internalType": "uint256",
          "name": "",
          "type": "uint256"
        }
      ],
      "name": "proposals",
      "outputs": [
        {
          "internalType": "uint256",
          "name": "id",
          "type": "uint256"
        },
        {
          "internalType": "string",
          "name": "name",
          "type": "string"
        },
        {
          "internalType": "string",
          "name": "avatar",
          "type": "string"
        },
        {
          "internalType": "uint256",
          "name": "voteCount",
          "type": "uint256"
        }
      ],
      "stateMutability": "view",
      "type": "function"
    },
    {
      "inputs": [
        {
          "internalType": "string",
          "name": "name",
          "type": "string"
        },
        {
          "internalType": "string",
          "name": "avatar",
          "type": "string"
        }
      ],
      "name": "registerVoter",
      "outputs": [],
      "stateMutability": "nonpayable",
      "type": "function"
    },
    {
      "inputs": [],
      "name": "title",
      "outputs": [
        {
          "internalType": "string",
          "name": "",
          "type": "string"
        }
      ],
      "stateMutability": "view",
      "type": "function"
    },
    {
      "inputs": [],
      "name": "validateChairperson",
      "outputs": [
        {
          "internalType": "bool",
          "name": "isChairperson",
          "type": "bool"
        }
      ],
      "stateMutability": "view",
      "type": "function"
    },
    {
      "inputs": [
        {
          "internalType": "uint256",
          "name": "id",
          "type": "uint256"
        }
      ],
      "name": "vote",
      "outputs": [],
      "stateMutability": "nonpayable",
      "type": "function"
    },
    {
      "inputs": [
        {
          "internalType": "address",
          "name": "",
          "type": "address"
        }
      ],
      "name": "voters",
      "outputs": [
        {
          "internalType": "address",
          "name": "addr",
          "type": "address"
        },
        {
          "internalType": "string",
          "name": "name",
          "type": "string"
        },
        {
          "internalType": "string",
          "name": "avatar",
          "type": "string"
        },
        {
          "internalType": "uint256",
          "name": "weight",
          "type": "uint256"
        },
        {
          "internalType": "bool",
          "name": "voted",
          "type": "bool"
        },
        {
          "internalType": "address",
          "name": "delegate",
          "type": "address"
        },
        {
          "internalType": "uint256",
          "name": "votedProposal",
          "type": "uint256"
        }
      ],
      "stateMutability": "view",
      "type": "function"
    },
    {
      "inputs": [
        {
          "internalType": "uint256",
          "name": "",
          "type": "uint256"
        }
      ],
      "name": "votersAddress",
      "outputs": [
        {
          "internalType": "address",
          "name": "",
          "type": "address"
        }
      ],
      "stateMutability": "view",
      "type": "function"
    },
    {
      "inputs": [],
      "name": "winningProposal",
      "outputs": [
        {
          "internalType": "uint256",
          "name": "winningProposal_",
          "type": "uint256"
        }
      ],
      "stateMutability": "view",
      "type": "function"
    }
  ],
  "bytecode": "0x60806040523480156200001157600080fd5b506040516200448a3803806200448a83398181016040528101906200003791906200028c565b336000806101000a81548173ffffffffffffffffffffffffffffffffffffffff021916908373ffffffffffffffffffffffffffffffffffffffff1602179055506001600260008060009054906101000a900473ffffffffffffffffffffffffffffffffffffffff1673ffffffffffffffffffffffffffffffffffffffff1673ffffffffffffffffffffffffffffffffffffffff168152602001908152602001600020600301819055508060059081620000f1919062000528565b50506200060f565b6000604051905090565b600080fd5b600080fd5b600080fd5b600080fd5b6000601f19601f8301169050919050565b7f4e487b7100000000000000000000000000000000000000000000000000000000600052604160045260246000fd5b620001628262000117565b810181811067ffffffffffffffff8211171562000184576200018362000128565b5b80604052505050565b600062000199620000f9565b9050620001a7828262000157565b919050565b600067ffffffffffffffff821115620001ca57620001c962000128565b5b620001d58262000117565b9050602081019050919050565b60005b8381101562000202578082015181840152602081019050620001e5565b60008484015250505050565b6000620002256200021f84620001ac565b6200018d565b90508281526020810184848401111562000244576200024362000112565b5b62000251848285620001e2565b509392505050565b600082601f8301126200027157620002706200010d565b5b8151620002838482602086016200020e565b91505092915050565b600060208284031215620002a557620002a462000103565b5b600082015167ffffffffffffffff811115620002c657620002c562000108565b5b620002d48482850162000259565b91505092915050565b600081519050919050565b7f4e487b7100000000000000000000000000000000000000000000000000000000600052602260045260246000fd5b600060028204905060018216806200033057607f821691505b602082108103620003465762000345620002e8565b5b50919050565b60008190508160005260206000209050919050565b60006020601f8301049050919050565b600082821b905092915050565b600060088302620003b07fffffffffffffffffffffffffffffffffffffffffffffffffffffffffffffffff8262000371565b620003bc868362000371565b95508019841693508086168417925050509392505050565b6000819050919050565b6000819050919050565b60006200040962000403620003fd84620003d4565b620003de565b620003d4565b9050919050565b6000819050919050565b6200042583620003e8565b6200043d620004348262000410565b8484546200037e565b825550505050565b600090565b6200045462000445565b620004618184846200041a565b505050565b5b8181101562000489576200047d6000826200044a565b60018101905062000467565b5050565b601f821115620004d857620004a2816200034c565b620004ad8462000361565b81016020851015620004bd578190505b620004d5620004cc8562000361565b83018262000466565b50505b505050565b600082821c905092915050565b6000620004fd60001984600802620004dd565b1980831691505092915050565b6000620005188383620004ea565b9150826002028217905092915050565b6200053382620002dd565b67ffffffffffffffff8111156200054f576200054e62000128565b5b6200055b825462000317565b620005688282856200048d565b600060209050601f831160018114620005a057600084156200058b578287015190505b6200059785826200050a565b86555062000607565b601f198416620005b0866200034c565b60005b82811015620005da57848901518255600182019150602085019450602081019050620005b3565b86831015620005fa5784890151620005f6601f891682620004ea565b8355505b6001600288020188555050505b505050505050565b613e6b806200061f6000396000f3fe608060405234801561001057600080fd5b50600436106101375760003560e01c8063687f215f116100b8578063b1c9fe6e1161007c578063b1c9fe6e14610333578063cf61b7db14610351578063e1c2c15e1461036f578063f767b1ca1461038d578063f972c1c4146103b0578063ffe172c0146103cc57610137565b8063687f215f1461028957806376b32537146102a75780638a4c8847146102c35780638e7ea5b2146102df578063a3ec138d146102fd57610137565b806343242daa116100ff57806343242daa146101e35780634a79d50c146102135780635c19a95c14610231578063609ff1bd1461024d57806362564c481461026b57610137565b80630121b93f1461013c578063013cf08b146101585780630721c2971461018b5780632e4176cf146101a757806335bbe70e146101c5575b600080fd5b610156600480360381019061015191906129d3565b6103ea565b005b610172600480360381019061016d91906129d3565b6105c8565b6040516101829493929190612a9f565b60405180910390f35b6101a560048036038101906101a09190612b17565b610718565b005b6101af610848565b6040516101bc9190612b85565b60405180910390f35b6101cd61086c565b6040516101da9190612c5e565b60405180910390f35b6101fd60048036038101906101f891906129d3565b6108fa565b60405161020a9190612b85565b60405180910390f35b61021b610939565b6040516102289190612c80565b60405180910390f35b61024b60048036038101906102469190612cce565b6109c7565b005b610255610d61565b6040516102629190612cfb565b60405180910390f35b610273610e5a565b6040516102809190612e9b565b60405180910390f35b610291610ff1565b60405161029e9190612ed8565b60405180910390f35b6102c160048036038101906102bc9190613028565b611048565b005b6102dd60048036038101906102d891906130b3565b611246565b005b6102e7611453565b6040516102f49190613195565b60405180910390f35b61031760048036038101906103129190612cce565b611641565b60405161032a97969594939291906131b7565b60405180910390f35b61033b6117e0565b60405161034891906132ab565b60405180910390f35b6103596117f3565b604051610366919061343a565b60405180910390f35b610377611c49565b604051610384919061343a565b60405180910390f35b61039561209f565b6040516103a79695949392919061345c565b60405180910390f35b6103ca60048036038101906103c591906134c4565b6122db565b005b6103d4612710565b6040516103e19190612cfb565b60405180910390f35b6000600260003373ffffffffffffffffffffffffffffffffffffffff1673ffffffffffffffffffffffffffffffffffffffff168152602001908152602001600020905060005b60038054905081101561047d5782600382815481106104525761045161354f565b5b906000526020600020906004020160000154031561047d578080610475906135ad565b915050610430565b60038054905081106104c4576040517f08c379a00000000000000000000000000000000000000000000000000000000081526004016104bb90613641565b60405180910390fd5b600082600301540361050b576040517f08c379a0000000000000000000000000000000000000000000000000000000008152600401610502906136ad565b60405180910390fd5b8160040160009054906101000a900460ff161561055d576040517f08c379a000000000000000000000000000000000000000000000000000000000815260040161055490613719565b60405180910390fd5b60018260040160006101000a81548160ff02191690831515021790555080826005018190555081600301546003828154811061059c5761059b61354f565b5b906000526020600020906004020160030160008282546105bc9190613739565b92505081905550505050565b600381815481106105d857600080fd5b90600052602060002090600402016000915090508060000154908060010180546106019061379c565b80601f016020809104026020016040519081016040528092919081815260200182805461062d9061379c565b801561067a5780601f1061064f5761010080835404028352916020019161067a565b820191906000526020600020905b81548152906001019060200180831161065d57829003601f168201915b50505050509080600201805461068f9061379c565b80601f01602080910402602001604051908101604052809291908181526020018280546106bb9061379c565b80156107085780601f106106dd57610100808354040283529160200191610708565b820191906000526020600020905b8154815290600101906020018083116106eb57829003601f168201915b5050505050908060030154905084565b60008054906101000a900473ffffffffffffffffffffffffffffffffffffffff1673ffffffffffffffffffffffffffffffffffffffff163373ffffffffffffffffffffffffffffffffffffffff16146107a6576040517f08c379a000000000000000000000000000000000000000000000000000000000815260040161079d90613819565b60405180910390fd5b600460009054906101000a900460ff1660038111156107c8576107c7613234565b5b8160038111156107db576107da613234565b5b1161081b576040517f08c379a000000000000000000000000000000000000000000000000000000000815260040161081290613885565b60405180910390fd5b80600460006101000a81548160ff021916908360038111156108405761083f613234565b5b021790555050565b60008054906101000a900473ffffffffffffffffffffffffffffffffffffffff1681565b606060018054806020026020016040519081016040528092919081815260200182805480156108f057602002820191906000526020600020905b8160009054906101000a900473ffffffffffffffffffffffffffffffffffffffff1673ffffffffffffffffffffffffffffffffffffffff16815260200190600101908083116108a6575b5050505050905090565b6001818154811061090a57600080fd5b906000526020600020016000915054906101000a900473ffffffffffffffffffffffffffffffffffffffff1681565b600580546109469061379c565b80601f01602080910402602001604051908101604052809291908181526020018280546109729061379c565b80156109bf5780601f10610994576101008083540402835291602001916109bf565b820191906000526020600020905b8154815290600101906020018083116109a257829003601f168201915b505050505081565b6000600260003373ffffffffffffffffffffffffffffffffffffffff1673ffffffffffffffffffffffffffffffffffffffff16815260200190815260200160002090508060040160009054906101000a900460ff1615610a5c576040517f08c379a0000000000000000000000000000000000000000000000000000000008152600401610a53906138f1565b60405180910390fd5b3373ffffffffffffffffffffffffffffffffffffffff168273ffffffffffffffffffffffffffffffffffffffff1603610aca576040517f08c379a0000000000000000000000000000000000000000000000000000000008152600401610ac19061395d565b60405180910390fd5b5b600073ffffffffffffffffffffffffffffffffffffffff16600260008473ffffffffffffffffffffffffffffffffffffffff1673ffffffffffffffffffffffffffffffffffffffff16815260200190815260200160002060040160019054906101000a900473ffffffffffffffffffffffffffffffffffffffff1673ffffffffffffffffffffffffffffffffffffffff1614610c3957600260008373ffffffffffffffffffffffffffffffffffffffff1673ffffffffffffffffffffffffffffffffffffffff16815260200190815260200160002060040160019054906101000a900473ffffffffffffffffffffffffffffffffffffffff1691503373ffffffffffffffffffffffffffffffffffffffff168273ffffffffffffffffffffffffffffffffffffffff1603610c34576040517f08c379a0000000000000000000000000000000000000000000000000000000008152600401610c2b906139c9565b60405180910390fd5b610acb565b60018160040160006101000a81548160ff021916908315150217905550818160040160016101000a81548173ffffffffffffffffffffffffffffffffffffffff021916908373ffffffffffffffffffffffffffffffffffffffff1602179055506000600260008473ffffffffffffffffffffffffffffffffffffffff1673ffffffffffffffffffffffffffffffffffffffff16815260200190815260200160002090508060040160009054906101000a900460ff1615610d3c5781600301546003826005015481548110610d1057610d0f61354f565b5b90600052602060002090600402016003016000828254610d309190613739565b92505081905550610d5c565b8160030154816003016000828254610d549190613739565b925050819055505b505050565b6000600380811115610d7657610d75613234565b5b600460009054906101000a900460ff166003811115610d9857610d97613234565b5b14610dd8576040517f08c379a0000000000000000000000000000000000000000000000000000000008152600401610dcf90613a35565b60405180910390fd5b6000805b600380549050811015610e55578160038281548110610dfe57610dfd61354f565b5b9060005260206000209060040201600301541115610e425760038181548110610e2a57610e2961354f565b5b90600052602060002090600402016003015491508092505b8080610e4d906135ad565b915050610ddc565b505090565b60606003805480602002602001604051908101604052809291908181526020016000905b82821015610fe8578382906000526020600020906004020160405180608001604052908160008201548152602001600182018054610ebb9061379c565b80601f0160208091040260200160405190810160405280929190818152602001828054610ee79061379c565b8015610f345780601f10610f0957610100808354040283529160200191610f34565b820191906000526020600020905b815481529060010190602001808311610f1757829003601f168201915b50505050508152602001600282018054610f4d9061379c565b80601f0160208091040260200160405190810160405280929190818152602001828054610f799061379c565b8015610fc65780601f10610f9b57610100808354040283529160200191610fc6565b820191906000526020600020905b815481529060010190602001808311610fa957829003601f168201915b5050505050815260200160038201548152505081526020019060010190610e7e565b50505050905090565b60008060009054906101000a900473ffffffffffffffffffffffffffffffffffffffff1673ffffffffffffffffffffffffffffffffffffffff163373ffffffffffffffffffffffffffffffffffffffff1614905090565b60008054906101000a900473ffffffffffffffffffffffffffffffffffffffff1673ffffffffffffffffffffffffffffffffffffffff163373ffffffffffffffffffffffffffffffffffffffff16146110d6576040517f08c379a00000000000000000000000000000000000000000000000000000000081526004016110cd90613819565b60405180910390fd5b60005b6003805490508110156111265783600382815481106110fb576110fa61354f565b5b906000526020600020906004020160000154031561112657808061111e906135ad565b9150506110d9565b600380549050811461116d576040517f08c379a000000000000000000000000000000000000000000000000000000000815260040161116490613aa1565b60405180910390fd5b6000600380549050905060036040518060800160405280878152602001868152602001858152602001600081525090806001815401808255809150506001900390600052602060002090600402016000909190919091506000820151816000015560208201518160010190816111e39190613c6d565b5060408201518160020190816111f99190613c6d565b506060820151816003015550507f5ab5e97c393a1e0fba71d5d694ad0ddda499d7bf13be3eeebbaa0ebf5d6547c38185604051611237929190613d3f565b60405180910390a15050505050565b6000600260003373ffffffffffffffffffffffffffffffffffffffff1673ffffffffffffffffffffffffffffffffffffffff16815260200190815260200160002060030154146112cb576040517f08c379a00000000000000000000000000000000000000000000000000000000081526004016112c290613de1565b60405180910390fd5b6001339080600181540180825580915050600190039060005260206000200160009091909190916101000a81548173ffffffffffffffffffffffffffffffffffffffff021916908373ffffffffffffffffffffffffffffffffffffffff16021790555081600260003373ffffffffffffffffffffffffffffffffffffffff1673ffffffffffffffffffffffffffffffffffffffff168152602001908152602001600020600101908161137d9190613c6d565b5080600260003373ffffffffffffffffffffffffffffffffffffffff1673ffffffffffffffffffffffffffffffffffffffff16815260200190815260200160002060020190816113cd9190613c6d565b5033600260003373ffffffffffffffffffffffffffffffffffffffff1673ffffffffffffffffffffffffffffffffffffffff16815260200190815260200160002060000160006101000a81548173ffffffffffffffffffffffffffffffffffffffff021916908373ffffffffffffffffffffffffffffffffffffffff1602179055505050565b61145b6128f6565b60038081111561146e5761146d613234565b5b600460009054906101000a900460ff1660038111156114905761148f613234565b5b146114d0576040517f08c379a00000000000000000000000000000000000000000000000000000000081526004016114c790613a35565b60405180910390fd5b60036114da610d61565b815481106114eb576114ea61354f565b5b90600052602060002090600402016040518060800160405290816000820154815260200160018201805461151e9061379c565b80601f016020809104026020016040519081016040528092919081815260200182805461154a9061379c565b80156115975780601f1061156c57610100808354040283529160200191611597565b820191906000526020600020905b81548152906001019060200180831161157a57829003601f168201915b505050505081526020016002820180546115b09061379c565b80601f01602080910402602001604051908101604052809291908181526020018280546115dc9061379c565b80156116295780601f106115fe57610100808354040283529160200191611629565b820191906000526020600020905b81548152906001019060200180831161160c57829003601f168201915b50505050508152602001600382015481525050905090565b60026020528060005260406000206000915090508060000160009054906101000a900473ffffffffffffffffffffffffffffffffffffffff169080600101805461168a9061379c565b80601f01602080910402602001604051908101604052809291908181526020018280546116b69061379c565b80156117035780601f106116d857610100808354040283529160200191611703565b820191906000526020600020905b8154815290600101906020018083116116e657829003601f168201915b5050505050908060020180546117189061379c565b80601f01602080910402602001604051908101604052809291908181526020018280546117449061379c565b80156117915780601f1061176657610100808354040283529160200191611791565b820191906000526020600020905b81548152906001019060200180831161177457829003601f168201915b5050505050908060030154908060040160009054906101000a900460ff16908060040160019054906101000a900473ffffffffffffffffffffffffffffffffffffffff16908060050154905087565b600460009054906101000a900460ff1681565b606060008054906101000a900473ffffffffffffffffffffffffffffffffffffffff1673ffffffffffffffffffffffffffffffffffffffff163373ffffffffffffffffffffffffffffffffffffffff1614611883576040517f08c379a000000000000000000000000000000000000000000000000000000000815260040161187a90613819565b60405180910390fd5b600060018054905067ffffffffffffffff8111156118a4576118a3612efd565b5b6040519080825280602002602001820160405280156118dd57816020015b6118ca61291e565b8152602001906001900390816118c25790505b5090506000805b600180549050811015611c40576000600260006001848154811061190b5761190a61354f565b5b9060005260206000200160009054906101000a900473ffffffffffffffffffffffffffffffffffffffff1673ffffffffffffffffffffffffffffffffffffffff1673ffffffffffffffffffffffffffffffffffffffff1681526020019081526020016000206003015403611c2d5760026000600183815481106119915761199061354f565b5b9060005260206000200160009054906101000a900473ffffffffffffffffffffffffffffffffffffffff1673ffffffffffffffffffffffffffffffffffffffff1673ffffffffffffffffffffffffffffffffffffffff1681526020019081526020016000206040518060e00160405290816000820160009054906101000a900473ffffffffffffffffffffffffffffffffffffffff1673ffffffffffffffffffffffffffffffffffffffff1673ffffffffffffffffffffffffffffffffffffffff168152602001600182018054611a679061379c565b80601f0160208091040260200160405190810160405280929190818152602001828054611a939061379c565b8015611ae05780601f10611ab557610100808354040283529160200191611ae0565b820191906000526020600020905b815481529060010190602001808311611ac357829003601f168201915b50505050508152602001600282018054611af99061379c565b80601f0160208091040260200160405190810160405280929190818152602001828054611b259061379c565b8015611b725780601f10611b4757610100808354040283529160200191611b72565b820191906000526020600020905b815481529060010190602001808311611b5557829003601f168201915b50505050508152602001600382015481526020016004820160009054906101000a900460ff161515151581526020016004820160019054906101000a900473ffffffffffffffffffffffffffffffffffffffff1673ffffffffffffffffffffffffffffffffffffffff1673ffffffffffffffffffffffffffffffffffffffff168152602001600582015481525050838381518110611c1357611c1261354f565b5b60200260200101819052508180611c29906135ad565b9250505b8080611c38906135ad565b9150506118e4565b50819250505090565b606060008054906101000a900473ffffffffffffffffffffffffffffffffffffffff1673ffffffffffffffffffffffffffffffffffffffff163373ffffffffffffffffffffffffffffffffffffffff1614611cd9576040517f08c379a0000000000000000000000000000000000000000000000000000000008152600401611cd090613819565b60405180910390fd5b600060018054905067ffffffffffffffff811115611cfa57611cf9612efd565b5b604051908082528060200260200182016040528015611d3357816020015b611d2061291e565b815260200190600190039081611d185790505b5090506000805b6001805490508110156120965760016002600060018481548110611d6157611d6061354f565b5b9060005260206000200160009054906101000a900473ffffffffffffffffffffffffffffffffffffffff1673ffffffffffffffffffffffffffffffffffffffff1673ffffffffffffffffffffffffffffffffffffffff1681526020019081526020016000206003015403612083576002600060018381548110611de757611de661354f565b5b9060005260206000200160009054906101000a900473ffffffffffffffffffffffffffffffffffffffff1673ffffffffffffffffffffffffffffffffffffffff1673ffffffffffffffffffffffffffffffffffffffff1681526020019081526020016000206040518060e00160405290816000820160009054906101000a900473ffffffffffffffffffffffffffffffffffffffff1673ffffffffffffffffffffffffffffffffffffffff1673ffffffffffffffffffffffffffffffffffffffff168152602001600182018054611ebd9061379c565b80601f0160208091040260200160405190810160405280929190818152602001828054611ee99061379c565b8015611f365780601f10611f0b57610100808354040283529160200191611f36565b820191906000526020600020905b815481529060010190602001808311611f1957829003601f168201915b50505050508152602001600282018054611f4f9061379c565b80601f0160208091040260200160405190810160405280929190818152602001828054611f7b9061379c565b8015611fc85780601f10611f9d57610100808354040283529160200191611fc8565b820191906000526020600020905b815481529060010190602001808311611fab57829003601f168201915b50505050508152602001600382015481526020016004820160009054906101000a900460ff161515151581526020016004820160019054906101000a900473ffffffffffffffffffffffffffffffffffffffff1673ffffffffffffffffffffffffffffffffffffffff1673ffffffffffffffffffffffffffffffffffffffff1681526020016005820154815250508383815181106120695761206861354f565b5b6020026020010181905250818061207f906135ad565b9250505b808061208e906135ad565b915050611d3a565b50819250505090565b6000606060008060008060008054906101000a900473ffffffffffffffffffffffffffffffffffffffff1673ffffffffffffffffffffffffffffffffffffffff163373ffffffffffffffffffffffffffffffffffffffff1614612137576040517f08c379a000000000000000000000000000000000000000000000000000000000815260040161212e90613819565b60405180910390fd5b60008054906101000a900473ffffffffffffffffffffffffffffffffffffffff169550600580546121679061379c565b80601f01602080910402602001604051908101604052809291908181526020018280546121939061379c565b80156121e05780601f106121b5576101008083540402835291602001916121e0565b820191906000526020600020905b8154815290600101906020018083116121c357829003601f168201915b50505050509450600460009054906101000a900460ff16935060038054905092506000905060005b6001805490508110156122bf576000600260006001848154811061222f5761222e61354f565b5b9060005260206000200160009054906101000a900473ffffffffffffffffffffffffffffffffffffffff1673ffffffffffffffffffffffffffffffffffffffff1673ffffffffffffffffffffffffffffffffffffffff16815260200190815260200160002060030154036122ac5781806122a8906135ad565b9250505b80806122b7906135ad565b915050612208565b50806001805490506122d19190613e01565b9150909192939495565b60008054906101000a900473ffffffffffffffffffffffffffffffffffffffff1673ffffffffffffffffffffffffffffffffffffffff163373ffffffffffffffffffffffffffffffffffffffff1614612369576040517f08c379a000000000000000000000000000000000000000000000000000000000815260040161236090613819565b60405180910390fd5b6000600260008573ffffffffffffffffffffffffffffffffffffffff1673ffffffffffffffffffffffffffffffffffffffff16815260200190815260200160002060030154146123ee576040517f08c379a00000000000000000000000000000000000000000000000000000000081526004016123e590613de1565b60405180910390fd5b6000600260008573ffffffffffffffffffffffffffffffffffffffff1673ffffffffffffffffffffffffffffffffffffffff168152602001908152602001600020600101805461243d9061379c565b9050036124955781600260008573ffffffffffffffffffffffffffffffffffffffff1673ffffffffffffffffffffffffffffffffffffffff16815260200190815260200160002060010190816124939190613c6d565b505b6000600260008573ffffffffffffffffffffffffffffffffffffffff1673ffffffffffffffffffffffffffffffffffffffff16815260200190815260200160002060020180546124e49061379c565b90500361253c5780600260008573ffffffffffffffffffffffffffffffffffffffff1673ffffffffffffffffffffffffffffffffffffffff168152602001908152602001600020600201908161253a9190613c6d565b505b6001600260008573ffffffffffffffffffffffffffffffffffffffff1673ffffffffffffffffffffffffffffffffffffffff1681526020019081526020016000206003018190555082600260008573ffffffffffffffffffffffffffffffffffffffff1673ffffffffffffffffffffffffffffffffffffffff16815260200190815260200160002060000160006101000a81548173ffffffffffffffffffffffffffffffffffffffff021916908373ffffffffffffffffffffffffffffffffffffffff16021790555060005b60018054905081101561269a578373ffffffffffffffffffffffffffffffffffffffff16600182815481106126405761263f61354f565b5b9060005260206000200160009054906101000a900473ffffffffffffffffffffffffffffffffffffffff1673ffffffffffffffffffffffffffffffffffffffff16031561269a578080612692906135ad565b915050612608565b600180549050810361270a576001849080600181540180825580915050600190039060005260206000200160009091909190916101000a81548173ffffffffffffffffffffffffffffffffffffffff021916908373ffffffffffffffffffffffffffffffffffffffff1602179055505b50505050565b600080600090505b6001805490508110156127aa573373ffffffffffffffffffffffffffffffffffffffff16600182815481106127505761274f61354f565b5b9060005260206000200160009054906101000a900473ffffffffffffffffffffffffffffffffffffffff1673ffffffffffffffffffffffffffffffffffffffff1603156127aa5780806127a2906135ad565b915050612718565b60018054905081036127bf57600091506128f2565b600060026000600184815481106127d9576127d861354f565b5b9060005260206000200160009054906101000a900473ffffffffffffffffffffffffffffffffffffffff1673ffffffffffffffffffffffffffffffffffffffff1673ffffffffffffffffffffffffffffffffffffffff168152602001908152602001600020600301540361285057600191506128f1565b60026000600183815481106128685761286761354f565b5b9060005260206000200160009054906101000a900473ffffffffffffffffffffffffffffffffffffffff1673ffffffffffffffffffffffffffffffffffffffff1673ffffffffffffffffffffffffffffffffffffffff16815260200190815260200160002060040160009054906101000a900460ff166128eb57600291506128f0565b600391505b5b5b5090565b6040518060800160405280600081526020016060815260200160608152602001600081525090565b6040518060e00160405280600073ffffffffffffffffffffffffffffffffffffffff168152602001606081526020016060815260200160008152602001600015158152602001600073ffffffffffffffffffffffffffffffffffffffff168152602001600081525090565b6000604051905090565b600080fd5b600080fd5b6000819050919050565b6129b08161299d565b81146129bb57600080fd5b50565b6000813590506129cd816129a7565b92915050565b6000602082840312156129e9576129e8612993565b5b60006129f7848285016129be565b91505092915050565b612a098161299d565b82525050565b600081519050919050565b600082825260208201905092915050565b60005b83811015612a49578082015181840152602081019050612a2e565b60008484015250505050565b6000601f19601f8301169050919050565b6000612a7182612a0f565b612a7b8185612a1a565b9350612a8b818560208601612a2b565b612a9481612a55565b840191505092915050565b6000608082019050612ab46000830187612a00565b8181036020830152612ac68186612a66565b90508181036040830152612ada8185612a66565b9050612ae96060830184612a00565b95945050505050565b60048110612aff57600080fd5b50565b600081359050612b1181612af2565b92915050565b600060208284031215612b2d57612b2c612993565b5b6000612b3b84828501612b02565b91505092915050565b600073ffffffffffffffffffffffffffffffffffffffff82169050919050565b6000612b6f82612b44565b9050919050565b612b7f81612b64565b82525050565b6000602082019050612b9a6000830184612b76565b92915050565b600081519050919050565b600082825260208201905092915050565b6000819050602082019050919050565b612bd581612b64565b82525050565b6000612be78383612bcc565b60208301905092915050565b6000602082019050919050565b6000612c0b82612ba0565b612c158185612bab565b9350612c2083612bbc565b8060005b83811015612c51578151612c388882612bdb565b9750612c4383612bf3565b925050600181019050612c24565b5085935050505092915050565b60006020820190508181036000830152612c788184612c00565b905092915050565b60006020820190508181036000830152612c9a8184612a66565b905092915050565b612cab81612b64565b8114612cb657600080fd5b50565b600081359050612cc881612ca2565b92915050565b600060208284031215612ce457612ce3612993565b5b6000612cf284828501612cb9565b91505092915050565b6000602082019050612d106000830184612a00565b92915050565b600081519050919050565b600082825260208201905092915050565b6000819050602082019050919050565b612d4b8161299d565b82525050565b600082825260208201905092915050565b6000612d6d82612a0f565b612d778185612d51565b9350612d87818560208601612a2b565b612d9081612a55565b840191505092915050565b6000608083016000830151612db36000860182612d42565b5060208301518482036020860152612dcb8282612d62565b91505060408301518482036040860152612de58282612d62565b9150506060830151612dfa6060860182612d42565b508091505092915050565b6000612e118383612d9b565b905092915050565b6000602082019050919050565b6000612e3182612d16565b612e3b8185612d21565b935083602082028501612e4d85612d32565b8060005b85811015612e895784840389528151612e6a8582612e05565b9450612e7583612e19565b925060208a01995050600181019050612e51565b50829750879550505050505092915050565b60006020820190508181036000830152612eb58184612e26565b905092915050565b60008115159050919050565b612ed281612ebd565b82525050565b6000602082019050612eed6000830184612ec9565b92915050565b600080fd5b600080fd5b7f4e487b7100000000000000000000000000000000000000000000000000000000600052604160045260246000fd5b612f3582612a55565b810181811067ffffffffffffffff82111715612f5457612f53612efd565b5b80604052505050565b6000612f67612989565b9050612f738282612f2c565b919050565b600067ffffffffffffffff821115612f9357612f92612efd565b5b612f9c82612a55565b9050602081019050919050565b82818337600083830152505050565b6000612fcb612fc684612f78565b612f5d565b905082815260208101848484011115612fe757612fe6612ef8565b5b612ff2848285612fa9565b509392505050565b600082601f83011261300f5761300e612ef3565b5b813561301f848260208601612fb8565b91505092915050565b60008060006060848603121561304157613040612993565b5b600061304f868287016129be565b935050602084013567ffffffffffffffff8111156130705761306f612998565b5b61307c86828701612ffa565b925050604084013567ffffffffffffffff81111561309d5761309c612998565b5b6130a986828701612ffa565b9150509250925092565b600080604083850312156130ca576130c9612993565b5b600083013567ffffffffffffffff8111156130e8576130e7612998565b5b6130f485828601612ffa565b925050602083013567ffffffffffffffff81111561311557613114612998565b5b61312185828601612ffa565b9150509250929050565b60006080830160008301516131436000860182612d42565b506020830151848203602086015261315b8282612d62565b915050604083015184820360408601526131758282612d62565b915050606083015161318a6060860182612d42565b508091505092915050565b600060208201905081810360008301526131af818461312b565b905092915050565b600060e0820190506131cc600083018a612b76565b81810360208301526131de8189612a66565b905081810360408301526131f28188612a66565b90506132016060830187612a00565b61320e6080830186612ec9565b61321b60a0830185612b76565b61322860c0830184612a00565b98975050505050505050565b7f4e487b7100000000000000000000000000000000000000000000000000000000600052602160045260246000fd5b6004811061327457613273613234565b5b50565b600081905061328582613263565b919050565b600061329582613277565b9050919050565b6132a58161328a565b82525050565b60006020820190506132c0600083018461329c565b92915050565b600081519050919050565b600082825260208201905092915050565b6000819050602082019050919050565b6132fb81612ebd565b82525050565b600060e0830160008301516133196000860182612bcc565b50602083015184820360208601526133318282612d62565b9150506040830151848203604086015261334b8282612d62565b91505060608301516133606060860182612d42565b50608083015161337360808601826132f2565b5060a083015161338660a0860182612bcc565b5060c083015161339960c0860182612d42565b508091505092915050565b60006133b08383613301565b905092915050565b6000602082019050919050565b60006133d0826132c6565b6133da81856132d1565b9350836020820285016133ec856132e2565b8060005b85811015613428578484038952815161340985826133a4565b9450613414836133b8565b925060208a019950506001810190506133f0565b50829750879550505050505092915050565b6000602082019050818103600083015261345481846133c5565b905092915050565b600060c0820190506134716000830189612b76565b81810360208301526134838188612a66565b9050613492604083018761329c565b61349f6060830186612a00565b6134ac6080830185612a00565b6134b960a0830184612a00565b979650505050505050565b6000806000606084860312156134dd576134dc612993565b5b60006134eb86828701612cb9565b935050602084013567ffffffffffffffff81111561350c5761350b612998565b5b61351886828701612ffa565b925050604084013567ffffffffffffffff81111561353957613538612998565b5b61354586828701612ffa565b9150509250925092565b7f4e487b7100000000000000000000000000000000000000000000000000000000600052603260045260246000fd5b7f4e487b7100000000000000000000000000000000000000000000000000000000600052601160045260246000fd5b60006135b88261299d565b91507fffffffffffffffffffffffffffffffffffffffffffffffffffffffffffffffff82036135ea576135e961357e565b5b600182019050919050565b7f50726f706f73616c206e6f742065786973740000000000000000000000000000600082015250565b600061362b601283612a1a565b9150613636826135f5565b602082019050919050565b6000602082019050818103600083015261365a8161361e565b9050919050565b7f486173206e6f20726967687420746f20766f7465000000000000000000000000600082015250565b6000613697601483612a1a565b91506136a282613661565b602082019050919050565b600060208201905081810360008301526136c68161368a565b9050919050565b7f416c726561647920766f7465642e000000000000000000000000000000000000600082015250565b6000613703600e83612a1a565b915061370e826136cd565b602082019050919050565b60006020820190508181036000830152613732816136f6565b9050919050565b60006137448261299d565b915061374f8361299d565b92508282019050808211156137675761376661357e565b5b92915050565b7f4e487b7100000000000000000000000000000000000000000000000000000000600052602260045260246000fd5b600060028204905060018216806137b457607f821691505b6020821081036137c7576137c661376d565b5b50919050565b7f4e6f74206368616972706572736f6e2e00000000000000000000000000000000600082015250565b6000613803601083612a1a565b915061380e826137cd565b602082019050919050565b60006020820190508181036000830152613832816137f6565b9050919050565b7f43616e2774206d6f766520746f2070726576696f757320706861736500000000600082015250565b600061386f601c83612a1a565b915061387a82613839565b602082019050919050565b6000602082019050818103600083015261389e81613862565b9050919050565b7f596f7520616c726561647920766f7465642e0000000000000000000000000000600082015250565b60006138db601283612a1a565b91506138e6826138a5565b602082019050919050565b6000602082019050818103600083015261390a816138ce565b9050919050565b7f53656c662d64656c65676174696f6e20697320646973616c6c6f7765642e0000600082015250565b6000613947601e83612a1a565b915061395282613911565b602082019050919050565b600060208201905081810360008301526139768161393a565b9050919050565b7f466f756e64206c6f6f7020696e2064656c65676174696f6e2e00000000000000600082015250565b60006139b3601983612a1a565b91506139be8261397d565b602082019050919050565b600060208201905081810360008301526139e2816139a6565b9050919050565b7f42616c6c6f7420686173206e6f742066696e6973686564207965740000000000600082015250565b6000613a1f601b83612a1a565b9150613a2a826139e9565b602082019050919050565b60006020820190508181036000830152613a4e81613a12565b9050919050565b7f50726f706f73616c206578697374656400000000000000000000000000000000600082015250565b6000613a8b601083612a1a565b9150613a9682613a55565b602082019050919050565b60006020820190508181036000830152613aba81613a7e565b9050919050565b60008190508160005260206000209050919050565b60006020601f8301049050919050565b600082821b905092915050565b600060088302613b237fffffffffffffffffffffffffffffffffffffffffffffffffffffffffffffffff82613ae6565b613b2d8683613ae6565b95508019841693508086168417925050509392505050565b6000819050919050565b6000613b6a613b65613b608461299d565b613b45565b61299d565b9050919050565b6000819050919050565b613b8483613b4f565b613b98613b9082613b71565b848454613af3565b825550505050565b600090565b613bad613ba0565b613bb8818484613b7b565b505050565b5b81811015613bdc57613bd1600082613ba5565b600181019050613bbe565b5050565b601f821115613c2157613bf281613ac1565b613bfb84613ad6565b81016020851015613c0a578190505b613c1e613c1685613ad6565b830182613bbd565b50505b505050565b600082821c905092915050565b6000613c4460001984600802613c26565b1980831691505092915050565b6000613c5d8383613c33565b9150826002028217905092915050565b613c7682612a0f565b67ffffffffffffffff811115613c8f57613c8e612efd565b5b613c99825461379c565b613ca4828285613be0565b600060209050601f831160018114613cd75760008415613cc5578287015190505b613ccf8582613c51565b865550613d37565b601f198416613ce586613ac1565b60005b82811015613d0d57848901518255600182019150602085019450602081019050613ce8565b86831015613d2a5784890151613d26601f891682613c33565b8355505b6001600288020188555050505b505050505050565b6000604082019050613d546000830185612a00565b8181036020830152613d668184612a66565b90509392505050565b7f54686520766f74657220616c72656164792068617320726967687420746f207660008201527f6f74652e00000000000000000000000000000000000000000000000000000000602082015250565b6000613dcb602483612a1a565b9150613dd682613d6f565b604082019050919050565b60006020820190508181036000830152613dfa81613dbe565b9050919050565b6000613e0c8261299d565b9150613e178361299d565b9250828203905081811115613e2f57613e2e61357e565b5b9291505056fea2646970667358221220dbe8146829699a220e0df168ca6f2f928518bdefcf3fc15c7f8949a1a657a16164736f6c63430008110033",
  "linkReferences": {},
  "deployedLinkReferences": {}
}