{
  "_format": "hh-sol-artifact-1",
  "contractName": "Ballot",
  "sourceName": "contracts/Ballot.sol",
  "abi": [
    {
      "inputs": [],
      "stateMutability": "nonpayable",
      "type": "constructor"
    },
    {
      "anonymous": false,
      "inputs": [
        {
          "indexed": false,
          "internalType": "uint256",
          "name": "index",
          "type": "uint256"
        },
        {
          "indexed": false,
          "internalType": "string",
          "name": "name",
          "type": "string"
        }
      ],
      "name": "EventAddProposal",
      "type": "event"
    },
    {
      "inputs": [
        {
          "internalType": "string",
          "name": "name",
          "type": "string"
        }
      ],
      "name": "addProposal",
      "outputs": [],
      "stateMutability": "nonpayable",
      "type": "function"
    },
    {
      "inputs": [],
      "name": "chairperson",
      "outputs": [
        {
          "internalType": "address",
          "name": "",
          "type": "address"
        }
      ],
      "stateMutability": "view",
      "type": "function"
    },
    {
      "inputs": [
        {
          "internalType": "enum Ballot.PHASE",
          "name": "x",
          "type": "uint8"
        }
      ],
      "name": "changePhase",
      "outputs": [],
      "stateMutability": "nonpayable",
      "type": "function"
    },
    {
      "inputs": [
        {
          "internalType": "address",
          "name": "to",
          "type": "address"
        }
      ],
      "name": "delegate",
      "outputs": [],
      "stateMutability": "nonpayable",
      "type": "function"
    },
    {
      "inputs": [],
      "name": "getAllVoters",
      "outputs": [
        {
          "internalType": "address[]",
          "name": "",
          "type": "address[]"
        }
      ],
      "stateMutability": "view",
      "type": "function"
    },
    {
      "inputs": [],
      "name": "getProposals",
      "outputs": [
        {
          "components": [
            {
              "internalType": "string",
              "name": "name",
              "type": "string"
            },
            {
              "internalType": "uint256",
              "name": "voteCount",
              "type": "uint256"
            }
          ],
          "internalType": "struct Ballot.Proposal[]",
          "name": "",
          "type": "tuple[]"
        }
      ],
      "stateMutability": "view",
      "type": "function"
    },
    {
      "inputs": [
        {
          "internalType": "address",
          "name": "voter",
          "type": "address"
        }
      ],
      "name": "giveRightToVote",
      "outputs": [],
      "stateMutability": "nonpayable",
      "type": "function"
    },
    {
      "inputs": [
        {
          "internalType": "uint256",
          "name": "",
          "type": "uint256"
        }
      ],
      "name": "proposals",
      "outputs": [
        {
          "internalType": "string",
          "name": "name",
          "type": "string"
        },
        {
          "internalType": "uint256",
          "name": "voteCount",
          "type": "uint256"
        }
      ],
      "stateMutability": "view",
      "type": "function"
    },
    {
      "inputs": [],
      "name": "state",
      "outputs": [
        {
          "internalType": "enum Ballot.PHASE",
          "name": "",
          "type": "uint8"
        }
      ],
      "stateMutability": "view",
      "type": "function"
    },
    {
      "inputs": [
        {
          "internalType": "uint256",
          "name": "proposal",
          "type": "uint256"
        }
      ],
      "name": "vote",
      "outputs": [],
      "stateMutability": "nonpayable",
      "type": "function"
    },
    {
      "inputs": [
        {
          "internalType": "address",
          "name": "",
          "type": "address"
        }
      ],
      "name": "voters",
      "outputs": [
        {
          "internalType": "uint256",
          "name": "weight",
          "type": "uint256"
        },
        {
          "internalType": "bool",
          "name": "voted",
          "type": "bool"
        },
        {
          "internalType": "address",
          "name": "delegate",
          "type": "address"
        },
        {
          "internalType": "uint256",
          "name": "votedProposal",
          "type": "uint256"
        }
      ],
      "stateMutability": "view",
      "type": "function"
    },
    {
      "inputs": [
        {
          "internalType": "uint256",
          "name": "",
          "type": "uint256"
        }
      ],
      "name": "votersAddress",
      "outputs": [
        {
          "internalType": "address",
          "name": "",
          "type": "address"
        }
      ],
      "stateMutability": "view",
      "type": "function"
    },
    {
      "inputs": [],
      "name": "winnerName",
      "outputs": [
        {
          "internalType": "string",
          "name": "winnerName_",
          "type": "string"
        }
      ],
      "stateMutability": "view",
      "type": "function"
    },
    {
      "inputs": [],
      "name": "winningProposal",
      "outputs": [
        {
          "internalType": "uint256",
          "name": "winningProposal_",
          "type": "uint256"
        }
      ],
      "stateMutability": "view",
      "type": "function"
    }
  ],
  "bytecode": "0x608060405234801561001057600080fd5b50336000806101000a81548173ffffffffffffffffffffffffffffffffffffffff021916908373ffffffffffffffffffffffffffffffffffffffff16021790555060018060008060009054906101000a900473ffffffffffffffffffffffffffffffffffffffff1673ffffffffffffffffffffffffffffffffffffffff1673ffffffffffffffffffffffffffffffffffffffff1681526020019081526020016000206000018190555061201b806100c86000396000f3fe608060405234801561001057600080fd5b50600436106100ea5760003560e01c80635c19a95c1161008c5780639e7b8d61116100665780639e7b8d6114610238578063a3ec138d14610254578063c19d93fb14610287578063e2ba53f0146102a5576100ea565b80635c19a95c146101e0578063609ff1bd146101fc57806362564c481461021a576100ea565b80632e4176cf116100c85780632e4176cf146101585780632fdae3c51461017657806335bbe70e1461019257806343242daa146101b0576100ea565b80630121b93f146100ef578063013cf08b1461010b5780630721c2971461013c575b600080fd5b61010960048036038101906101049190611101565b6102c3565b005b61012560048036038101906101209190611101565b610409565b6040516101339291906111cd565b60405180910390f35b61015660048036038101906101519190611222565b6104c5565b005b6101606105f5565b60405161016d9190611290565b60405180910390f35b610190600480360381019061018b91906113e0565b610619565b005b61019a610751565b6040516101a791906114e7565b60405180910390f35b6101ca60048036038101906101c59190611101565b6107df565b6040516101d79190611290565b60405180910390f35b6101fa60048036038101906101f59190611535565b61081e565b005b610204610bb8565b6040516102119190611562565b60405180910390f35b610222610c40565b60405161022f91906116d5565b60405180910390f35b610252600480360381019061024d9190611535565b610d3b565b005b61026e60048036038101906102699190611535565b610f8b565b60405161027e9493929190611712565b60405180910390f35b61028f610fe8565b60405161029c91906117ce565b60405180910390f35b6102ad610ffb565b6040516102ba91906117e9565b60405180910390f35b6000600160003373ffffffffffffffffffffffffffffffffffffffff1673ffffffffffffffffffffffffffffffffffffffff1681526020019081526020016000209050600081600001540361034d576040517f08c379a000000000000000000000000000000000000000000000000000000000815260040161034490611857565b60405180910390fd5b8060010160009054906101000a900460ff161561039f576040517f08c379a0000000000000000000000000000000000000000000000000000000008152600401610396906118c3565b60405180910390fd5b60018160010160006101000a81548160ff0219169083151502179055508181600201819055508060000154600283815481106103de576103dd6118e3565b5b906000526020600020906002020160010160008282546103fe9190611941565b925050819055505050565b6002818154811061041957600080fd5b906000526020600020906002020160009150905080600001805461043c906119a4565b80601f0160208091040260200160405190810160405280929190818152602001828054610468906119a4565b80156104b55780601f1061048a576101008083540402835291602001916104b5565b820191906000526020600020905b81548152906001019060200180831161049857829003601f168201915b5050505050908060010154905082565b60008054906101000a900473ffffffffffffffffffffffffffffffffffffffff1673ffffffffffffffffffffffffffffffffffffffff163373ffffffffffffffffffffffffffffffffffffffff1614610553576040517f08c379a000000000000000000000000000000000000000000000000000000000815260040161054a90611a21565b60405180910390fd5b600460009054906101000a900460ff16600281111561057557610574611757565b5b81600281111561058857610587611757565b5b116105c8576040517f08c379a00000000000000000000000000000000000000000000000000000000081526004016105bf90611a8d565b60405180910390fd5b80600460006101000a81548160ff021916908360028111156105ed576105ec611757565b5b021790555050565b60008054906101000a900473ffffffffffffffffffffffffffffffffffffffff1681565b60008054906101000a900473ffffffffffffffffffffffffffffffffffffffff1673ffffffffffffffffffffffffffffffffffffffff163373ffffffffffffffffffffffffffffffffffffffff16146106a7576040517f08c379a000000000000000000000000000000000000000000000000000000000815260040161069e90611a21565b60405180910390fd5b60006002805490509050600260405180604001604052808481526020016000815250908060018154018082558091505060019003906000526020600020906002020160009091909190915060008201518160000190816107079190611c59565b506020820151816001015550507f5ab5e97c393a1e0fba71d5d694ad0ddda499d7bf13be3eeebbaa0ebf5d6547c38183604051610745929190611d2b565b60405180910390a15050565b606060038054806020026020016040519081016040528092919081815260200182805480156107d557602002820191906000526020600020905b8160009054906101000a900473ffffffffffffffffffffffffffffffffffffffff1673ffffffffffffffffffffffffffffffffffffffff168152602001906001019080831161078b575b5050505050905090565b600381815481106107ef57600080fd5b906000526020600020016000915054906101000a900473ffffffffffffffffffffffffffffffffffffffff1681565b6000600160003373ffffffffffffffffffffffffffffffffffffffff1673ffffffffffffffffffffffffffffffffffffffff16815260200190815260200160002090508060010160009054906101000a900460ff16156108b3576040517f08c379a00000000000000000000000000000000000000000000000000000000081526004016108aa90611da7565b60405180910390fd5b3373ffffffffffffffffffffffffffffffffffffffff168273ffffffffffffffffffffffffffffffffffffffff1603610921576040517f08c379a000000000000000000000000000000000000000000000000000000000815260040161091890611e13565b60405180910390fd5b5b600073ffffffffffffffffffffffffffffffffffffffff16600160008473ffffffffffffffffffffffffffffffffffffffff1673ffffffffffffffffffffffffffffffffffffffff16815260200190815260200160002060010160019054906101000a900473ffffffffffffffffffffffffffffffffffffffff1673ffffffffffffffffffffffffffffffffffffffff1614610a9057600160008373ffffffffffffffffffffffffffffffffffffffff1673ffffffffffffffffffffffffffffffffffffffff16815260200190815260200160002060010160019054906101000a900473ffffffffffffffffffffffffffffffffffffffff1691503373ffffffffffffffffffffffffffffffffffffffff168273ffffffffffffffffffffffffffffffffffffffff1603610a8b576040517f08c379a0000000000000000000000000000000000000000000000000000000008152600401610a8290611e7f565b60405180910390fd5b610922565b60018160010160006101000a81548160ff021916908315150217905550818160010160016101000a81548173ffffffffffffffffffffffffffffffffffffffff021916908373ffffffffffffffffffffffffffffffffffffffff1602179055506000600160008473ffffffffffffffffffffffffffffffffffffffff1673ffffffffffffffffffffffffffffffffffffffff16815260200190815260200160002090508060010160009054906101000a900460ff1615610b935781600001546002826002015481548110610b6757610b666118e3565b5b90600052602060002090600202016001016000828254610b879190611941565b92505081905550610bb3565b8160000154816000016000828254610bab9190611941565b925050819055505b505050565b6000806000905060005b600280549050811015610c3b578160028281548110610be457610be36118e3565b5b9060005260206000209060020201600101541115610c285760028181548110610c1057610c0f6118e3565b5b90600052602060002090600202016001015491508092505b8080610c3390611e9f565b915050610bc2565b505090565b60606002805480602002602001604051908101604052809291908181526020016000905b82821015610d325783829060005260206000209060020201604051806040016040529081600082018054610c97906119a4565b80601f0160208091040260200160405190810160405280929190818152602001828054610cc3906119a4565b8015610d105780601f10610ce557610100808354040283529160200191610d10565b820191906000526020600020905b815481529060010190602001808311610cf357829003601f168201915b5050505050815260200160018201548152505081526020019060010190610c64565b50505050905090565b60008054906101000a900473ffffffffffffffffffffffffffffffffffffffff1673ffffffffffffffffffffffffffffffffffffffff163373ffffffffffffffffffffffffffffffffffffffff1614610dc9576040517f08c379a0000000000000000000000000000000000000000000000000000000008152600401610dc090611a21565b60405180910390fd5b600160008273ffffffffffffffffffffffffffffffffffffffff1673ffffffffffffffffffffffffffffffffffffffff16815260200190815260200160002060010160009054906101000a900460ff1615610e59576040517f08c379a0000000000000000000000000000000000000000000000000000000008152600401610e5090611f33565b60405180910390fd5b6000600160008373ffffffffffffffffffffffffffffffffffffffff1673ffffffffffffffffffffffffffffffffffffffff1681526020019081526020016000206000015414610ede576040517f08c379a0000000000000000000000000000000000000000000000000000000008152600401610ed590611fc5565b60405180910390fd5b60018060008373ffffffffffffffffffffffffffffffffffffffff1673ffffffffffffffffffffffffffffffffffffffff168152602001908152602001600020600001819055506003819080600181540180825580915050600190039060005260206000200160009091909190916101000a81548173ffffffffffffffffffffffffffffffffffffffff021916908373ffffffffffffffffffffffffffffffffffffffff16021790555050565b60016020528060005260406000206000915090508060000154908060010160009054906101000a900460ff16908060010160019054906101000a900473ffffffffffffffffffffffffffffffffffffffff16908060020154905084565b600460009054906101000a900460ff1681565b60606002611007610bb8565b81548110611018576110176118e3565b5b90600052602060002090600202016000018054611034906119a4565b80601f0160208091040260200160405190810160405280929190818152602001828054611060906119a4565b80156110ad5780601f10611082576101008083540402835291602001916110ad565b820191906000526020600020905b81548152906001019060200180831161109057829003601f168201915b5050505050905090565b6000604051905090565b600080fd5b600080fd5b6000819050919050565b6110de816110cb565b81146110e957600080fd5b50565b6000813590506110fb816110d5565b92915050565b600060208284031215611117576111166110c1565b5b6000611125848285016110ec565b91505092915050565b600081519050919050565b600082825260208201905092915050565b60005b8381101561116857808201518184015260208101905061114d565b60008484015250505050565b6000601f19601f8301169050919050565b60006111908261112e565b61119a8185611139565b93506111aa81856020860161114a565b6111b381611174565b840191505092915050565b6111c7816110cb565b82525050565b600060408201905081810360008301526111e78185611185565b90506111f660208301846111be565b9392505050565b6003811061120a57600080fd5b50565b60008135905061121c816111fd565b92915050565b600060208284031215611238576112376110c1565b5b60006112468482850161120d565b91505092915050565b600073ffffffffffffffffffffffffffffffffffffffff82169050919050565b600061127a8261124f565b9050919050565b61128a8161126f565b82525050565b60006020820190506112a56000830184611281565b92915050565b600080fd5b600080fd5b7f4e487b7100000000000000000000000000000000000000000000000000000000600052604160045260246000fd5b6112ed82611174565b810181811067ffffffffffffffff8211171561130c5761130b6112b5565b5b80604052505050565b600061131f6110b7565b905061132b82826112e4565b919050565b600067ffffffffffffffff82111561134b5761134a6112b5565b5b61135482611174565b9050602081019050919050565b82818337600083830152505050565b600061138361137e84611330565b611315565b90508281526020810184848401111561139f5761139e6112b0565b5b6113aa848285611361565b509392505050565b600082601f8301126113c7576113c66112ab565b5b81356113d7848260208601611370565b91505092915050565b6000602082840312156113f6576113f56110c1565b5b600082013567ffffffffffffffff811115611414576114136110c6565b5b611420848285016113b2565b91505092915050565b600081519050919050565b600082825260208201905092915050565b6000819050602082019050919050565b61145e8161126f565b82525050565b60006114708383611455565b60208301905092915050565b6000602082019050919050565b600061149482611429565b61149e8185611434565b93506114a983611445565b8060005b838110156114da5781516114c18882611464565b97506114cc8361147c565b9250506001810190506114ad565b5085935050505092915050565b600060208201905081810360008301526115018184611489565b905092915050565b6115128161126f565b811461151d57600080fd5b50565b60008135905061152f81611509565b92915050565b60006020828403121561154b5761154a6110c1565b5b600061155984828501611520565b91505092915050565b600060208201905061157760008301846111be565b92915050565b600081519050919050565b600082825260208201905092915050565b6000819050602082019050919050565b600082825260208201905092915050565b60006115c58261112e565b6115cf81856115a9565b93506115df81856020860161114a565b6115e881611174565b840191505092915050565b6115fc816110cb565b82525050565b6000604083016000830151848203600086015261161f82826115ba565b915050602083015161163460208601826115f3565b508091505092915050565b600061164b8383611602565b905092915050565b6000602082019050919050565b600061166b8261157d565b6116758185611588565b93508360208202850161168785611599565b8060005b858110156116c357848403895281516116a4858261163f565b94506116af83611653565b925060208a0199505060018101905061168b565b50829750879550505050505092915050565b600060208201905081810360008301526116ef8184611660565b905092915050565b60008115159050919050565b61170c816116f7565b82525050565b600060808201905061172760008301876111be565b6117346020830186611703565b6117416040830185611281565b61174e60608301846111be565b95945050505050565b7f4e487b7100000000000000000000000000000000000000000000000000000000600052602160045260246000fd5b6003811061179757611796611757565b5b50565b60008190506117a882611786565b919050565b60006117b88261179a565b9050919050565b6117c8816117ad565b82525050565b60006020820190506117e360008301846117bf565b92915050565b600060208201905081810360008301526118038184611185565b905092915050565b7f486173206e6f20726967687420746f20766f7465000000000000000000000000600082015250565b6000611841601483611139565b915061184c8261180b565b602082019050919050565b6000602082019050818103600083015261187081611834565b9050919050565b7f416c726561647920766f7465642e000000000000000000000000000000000000600082015250565b60006118ad600e83611139565b91506118b882611877565b602082019050919050565b600060208201905081810360008301526118dc816118a0565b9050919050565b7f4e487b7100000000000000000000000000000000000000000000000000000000600052603260045260246000fd5b7f4e487b7100000000000000000000000000000000000000000000000000000000600052601160045260246000fd5b600061194c826110cb565b9150611957836110cb565b925082820190508082111561196f5761196e611912565b5b92915050565b7f4e487b7100000000000000000000000000000000000000000000000000000000600052602260045260246000fd5b600060028204905060018216806119bc57607f821691505b6020821081036119cf576119ce611975565b5b50919050565b7f4e6f74206368616972706572736f6e2e00000000000000000000000000000000600082015250565b6000611a0b601083611139565b9150611a16826119d5565b602082019050919050565b60006020820190508181036000830152611a3a816119fe565b9050919050565b7f43616e2774206d6f766520746f2070726576696f757320706861736500000000600082015250565b6000611a77601c83611139565b9150611a8282611a41565b602082019050919050565b60006020820190508181036000830152611aa681611a6a565b9050919050565b60008190508160005260206000209050919050565b60006020601f8301049050919050565b600082821b905092915050565b600060088302611b0f7fffffffffffffffffffffffffffffffffffffffffffffffffffffffffffffffff82611ad2565b611b198683611ad2565b95508019841693508086168417925050509392505050565b6000819050919050565b6000611b56611b51611b4c846110cb565b611b31565b6110cb565b9050919050565b6000819050919050565b611b7083611b3b565b611b84611b7c82611b5d565b848454611adf565b825550505050565b600090565b611b99611b8c565b611ba4818484611b67565b505050565b5b81811015611bc857611bbd600082611b91565b600181019050611baa565b5050565b601f821115611c0d57611bde81611aad565b611be784611ac2565b81016020851015611bf6578190505b611c0a611c0285611ac2565b830182611ba9565b50505b505050565b600082821c905092915050565b6000611c3060001984600802611c12565b1980831691505092915050565b6000611c498383611c1f565b9150826002028217905092915050565b611c628261112e565b67ffffffffffffffff811115611c7b57611c7a6112b5565b5b611c8582546119a4565b611c90828285611bcc565b600060209050601f831160018114611cc35760008415611cb1578287015190505b611cbb8582611c3d565b865550611d23565b601f198416611cd186611aad565b60005b82811015611cf957848901518255600182019150602085019450602081019050611cd4565b86831015611d165784890151611d12601f891682611c1f565b8355505b6001600288020188555050505b505050505050565b6000604082019050611d4060008301856111be565b8181036020830152611d528184611185565b90509392505050565b7f596f7520616c726561647920766f7465642e0000000000000000000000000000600082015250565b6000611d91601283611139565b9150611d9c82611d5b565b602082019050919050565b60006020820190508181036000830152611dc081611d84565b9050919050565b7f53656c662d64656c65676174696f6e20697320646973616c6c6f7765642e0000600082015250565b6000611dfd601e83611139565b9150611e0882611dc7565b602082019050919050565b60006020820190508181036000830152611e2c81611df0565b9050919050565b7f466f756e64206c6f6f7020696e2064656c65676174696f6e2e00000000000000600082015250565b6000611e69601983611139565b9150611e7482611e33565b602082019050919050565b60006020820190508181036000830152611e9881611e5c565b9050919050565b6000611eaa826110cb565b91507fffffffffffffffffffffffffffffffffffffffffffffffffffffffffffffffff8203611edc57611edb611912565b5b600182019050919050565b7f54686520766f74657220616c726561647920766f7465642e0000000000000000600082015250565b6000611f1d601883611139565b9150611f2882611ee7565b602082019050919050565b60006020820190508181036000830152611f4c81611f10565b9050919050565b7f54686520766f74657220616c72656164792068617320726967687420746f207660008201527f6f74652e00000000000000000000000000000000000000000000000000000000602082015250565b6000611faf602483611139565b9150611fba82611f53565b604082019050919050565b60006020820190508181036000830152611fde81611fa2565b905091905056fea264697066735822122079021351311ab6dfe652cb8dfe2d612f0398ee28f1dbd82ff3a01fdabbe3b24e64736f6c63430008110033",
  "linkReferences": {},
  "deployedLinkReferences": {}
}